:100000000C9434000C9478000C94A1000C945100D2
:100010000C9451000C9451000C9451000C9451001C
:100020000C9451000C9451000C9451000C9451000C
:100030000C9451000C9451000C94CA000C94510083
:100040000C9451000C9451000C94FD000C94510040
:100050000C9451000C9451000C9451000C945100DC
:100060000C9451000C94510011241FBECFEFD8E026
:10007000DEBFCDBF11E0A0E0B1E0EAE6F4E002C0EF
:1000800005900D92AA30B107D9F721E0AAE0B1E0BE
:1000900001C01D92A231B207E1F70E9405020C9443
:1000A00033020C940000009761F020E030E040E95A
:1000B00051E0FA013197F1F72F5F3F4F8217930715
:1000C000C1F708950F931F93CF93DF93009759F0D3
:1000D0008C01C0E0D0E08AE090E00E9453002196BD
:1000E0000C171D07C1F7DF91CF911F910F91089554
:1000F0001F920F920FB60F9211242F933F934F939D
:100100005F936F937F938F939F93AF93BF93EF937F
:10011000FF93E898E0910C01F0910D010995E89AA0
:10012000FF91EF91BF91AF919F918F917F916F91CF
:100130005F914F913F912F910F900FBE0F901F90A5
:1001400018951F920F920FB60F9211242F933F9381
:100150004F935F936F937F938F939F93AF93BF93CF
:10016000EF93FF93E998E0911001F0911101099547
:10017000E99AFF91EF91BF91AF919F918F917F91FC
:100180006F915F914F913F912F910F900FBE0F9004
:100190001F9018951F920F920FB60F9211242F9354
:1001A0003F934F935F936F937F938F939F93AF93FF
:1001B000BF93CF93DF93EF93FF93CEE6D0E0888198
:1001C0008D7F8883E0910A01F0910B010995888168
:1001D00082608883FF91EF91DF91CF91BF91AF91C2
:1001E0009F918F917F916F915F914F913F912F914F
:1001F0000F900FBE0F901F9018951F920F920FB681
:100200000F9211242F933F934F935F936F937F939C
:100210008F939F93AF93BF93EF93FF93E0910E0162
:10022000F0910F010995FF91EF91BF91AF919F91CF
:100230008F917F916F915F914F913F912F910F908F
:100240000FBE0F901F901895413051F58B329105DC
:1002500059F42AB181E090E002C0880F991F6A9595
:10026000E2F7822B8AB908958532910559F424B1B9
:1002700081E090E002C0880F991F6A95E2F7822B17
:1002800084B90895889709F047C027B181E090E0CC
:1002900002C0880F991F6A95E2F7822B87B90895EB
:1002A0008B32910569F45AB121E030E0062E02C08C
:1002B000220F331F0A94E2F7209525232AB91FC085
:1002C0008532910569F454B121E030E0062E02C078
:1002D000220F331F0A94E2F72095252324B90FC07B
:1002E0008832910561F457B121E030E0062E02C05A
:1002F000220F331F0A94E2F72095252327B94111D5
:100300000BC0FC01408121E030E002C0220F331F0E
:100310006A95E2F7242B2083089521E0613009F0EB
:1003200020E021958B32910511F42AB909C085325C
:10033000910511F424B904C08832910509F427B954
:10034000611103C02FEFFC01208308958B329105CA
:1003500049F489B190E002C0959587956A95E2F7D6
:10036000817008958532910549F483B190E002C00F
:10037000959587956A95E2F781700895889749F475
:1003800086B190E002C0959587956A95E2F78170F5
:10039000089580E00895FC0140FF0BC0208181E0BA
:1003A00090E002C0880F991F6A95E2F7822B808344
:1003B0000895908121E030E002C0220F331F6A953A
:1003C000E2F72095292320830895FC016083089596
:1003D00061E08BE290E00E948D016FEF8BE290E094
:1003E0000E94E501609100018BE290E00E94E5012E
:1003F00040E062E085E290E00E94240141E063E099
:1004000085E290E00E94240108950E94E80111E035
:100410000F2EF0E0EF2EF1E0FF2EF02D62E085E2EE
:1004200090E00E94A6018130C9F3CAE0D1E088EED5
:1004300093E00E9462006A918BE290E00E94E501E5
:10044000CE15DF05A1F7C0EDD7E0412F63E085E2CF
:1004500090E00E94CB0185E090E00E94530010954F
:0A046000219799F7DBCFF894FFCF46
:0A046A00C0F9A4B0999282F88090C6
:00000001FF
