S01C0000365F355F526F626F746572737465756572756E672E7372656320
S113000033C00000B7C00000DEC0000048C00000DC
S113001046C0000044C0000042C0000040C00000D0
S11300203EC000003CC000003AC0000038C00000E0
S113003036C0000034C00000EFC0000030C0000033
S11300402EC000002CC000001AC1000028C000000F
S113005026C0000024C0000022C0000020C0000010
S11300601EC000001CC0000011241FBECFEFD8E04A
S1130070DEBFCDBF11E0A0E0B1E0E0E8F4E002C0F3
S113008005900D92A432B107D9F721E0A4E2B1E0C2
S113009001C01D92AC32B207E1F748D0EFC1B0CF36
S11300A040E060E08BE290E011D140E061E08BE25F
S11300B090E00CD140E067E08BE290E007D141E0B2
S11300C062E08BE290E002D141E062E085E290E000
S11300D0FDD041E064E085E290E0F8D041E065E0E5
S11300E085E290E0F3D09AD1B1C10895CF93DF9324
S11300F024E0829FC0011124EC01C050DF4F4881ED
S113010062E08BE290E070D1498162E085E290E0A8
S11301106BD14A8164E085E290E066D14B8165E071
S113012085E290E061D1DF91CF910895B9DF85D167
S11301309CD184EB88D184EB9ED161E08BE290E08A
S11301402ED1811102C0D2DFF8CF60E08BE290E0C3
S113015026D1811103C086E0C9DFEFCF67E08BE2CF
S113016090E01DD1811103C085E0C0DFE6CF81E0BE
S1130170BDDFE3CF1F920F920FB60F9211242F937E
S11301803F934F935F936F937F938F939F93AF931B
S1130190BF93EF93FF93E898E0912601F091270134
S11301A00995E89AFF91EF91BF91AF919F918F913B
S11301B07F916F915F914F913F912F910F900FBE5F
S11301C00F901F9018951F920F920FB60F92112443
S11301D02F933F934F935F936F937F938F939F934B
S11301E0AF93BF93EF93FF93E998E0912A01F091C5
S11301F02B010995E99AFF91EF91BF91AF919F91DE
S11302008F917F916F915F914F913F912F910F90BB
S11302100FBE0F901F9018951F920F920FB60F925A
S113022011242F933F934F935F936F937F938F93F7
S11302309F93AF93BF93CF93DF93EF93FF93CEE658
S1130240D0E088818D7F8883E0912401F09125019D
S11302500995888182608883FF91EF91DF91CF9126
S1130260BF91AF919F918F917F916F915F914F91CA
S11302703F912F910F900FBE0F901F9018951F92D2
S11302800F920FB60F9211242F933F934F935F93C6
S11302906F937F938F939F93AF93BF93EF93FF934A
S11302A0E0912801F09129010995FF91EF91BF9107
S11302B0AF919F918F917F916F915F914F913F91FA
S11302C02F910F900FBE0F901F901895413051F54C
S11302D08B32910559F42AB181E090E002C0880F75
S11302E0991F6A95E2F7822B8AB9089585329105A0
S11302F059F424B181E090E002C0880F991F6A95F7
S1130300E2F7822B84B90895889709F047C027B192
S113031081E090E002C0880F991F6A95E2F7822B72
S113032087B908958B32910569F45AB121E030E020
S1130330062E02C0220F331F0A94E2F720952523CC
S11303402AB91FC08532910569F454B121E030E027
S1130350062E02C0220F331F0A94E2F720952523AC
S113036024B90FC08832910561F457B121E030E01F
S1130370062E02C0220F331F0A94E2F7209525238C
S113038027B941110BC0FC01408121E030E002C0DB
S1130390220F331F6A95E2F7242B208308958B32B2
S11303A0910549F489B190E002C0959587956A95C5
S11303B0E2F7817008958532910549F483B190E0A4
S11303C002C0959587956A95E2F78170089588979C
S11303D049F486B190E002C0959587956A95E2F755
S11303E08170089580E00895FC0140FF0BC02081D6
S11303F081E090E002C0880F991F6A95E2F7822B92
S113040080830895908121E030E002C0220F331FE1
S11304106A95E2F72095292320830895239AE1EB36
S1130420F0E0808184608083E0EBF0E08081836091
S113043080838FE78093B3000895E0EBF0E0808140
S11304408068808308958093B3000895539AE1EB04
S1130450F0E0808184608083E0EBF0E08081836061
S113046080838FE78093B4000895E0EBF0E080810F
S11304708062808308958093B4000895F894FFCF38
S11304800000000000010001010001000000000163
S11304900001000001000001000101000100000052
S10704A00000010053
S9030000FC
