:100000000C9434000C943E000C943E000C943E0082
:100010000C943E000C943E000C943E000C943E0068
:100020000C943E000C943E000C943E000C943E0058
:100030000C943E000C943E000C943E000C943E0048
:100040000C943E000C943E000C943E000C943E0038
:100050000C943E000C943E000C943E000C943E0028
:100060000C943E000C943E0011241FBECFEFD8E04C
:10007000DEBFCDBF0E9401010C941B010C94000057
:10008000413051F58B32910559F42AB181E090E06D
:1000900002C0880F991F6A95E2F7822B8AB90895EA
:1000A0008532910559F424B181E090E002C0880FB7
:1000B000991F6A95E2F7822B84B90895889709F011
:1000C00047C027B181E090E002C0880F991F6A9570
:1000D000E2F7822B87B908958B32910569F45AB102
:1000E00021E030E0062E02C0220F331F0A94E2F70F
:1000F000209525232AB91FC08532910569F454B192
:1001000021E030E0062E02C0220F331F0A94E2F7EE
:100110002095252324B90FC08832910561F457B189
:1001200021E030E0062E02C0220F331F0A94E2F7CE
:100130002095252327B941110BC0FC01408121E006
:1001400030E002C0220F331F6A95E2F7242B208390
:1001500008958B32910549F489B190E002C09595DC
:1001600087956A95E2F7817008958532910549F483
:1001700083B190E002C0959587956A95E2F781700A
:100180000895889749F486B190E002C095958795C7
:100190006A95E2F78170089580E00895FC0140FFC0
:1001A0000BC0208181E090E002C0880F991F6A9502
:1001B000E2F7822B80830895908121E030E002C035
:1001C000220F331F6A95E2F7209529232083089593
:1001D00041E061E08BE290E00E94400041E062E09B
:1001E0008BE290E00E94400040E062E085E290E017
:1001F0000E94400040E063E085E290E00E94400001
:1002000008950E94E80062E085E290E00E94A90063
:10021000482F61E08BE290E00E94CE0063E085E22F
:1002200090E00E94A900482F409562E08BE290E0A8
:0A0230000E94CE00E8CFF894FFCF43
:00000001FF
