:100000000C9434000C9449000C9449000C94490061
:100010000C9449000C9449000C9449000C9449003C
:100020000C9449000C9449000C9449000C9449002C
:100030000C9449000C9449000C9449000C9449001C
:100040000C9449000C9449000C9449000C9449000C
:100050000C9449000C9449000C9449000C944900FC
:100060000C9449000C94490011241FBECFEFD8E036
:10007000DEBFCDBF11E0A0E0B1E0E6E3F3E002C0F7
:1000800005900D92A031B107D9F70E9471010C942F
:1000900099010C940000009769F020E030E0EFE84F
:1000A000F1E03197F1F700C000002F5F3F4F2817B4
:1000B0003907A9F708950F931F93CF93DF93009704
:1000C00059F08C01C0E0D0E08AE090E00E944B0043
:1000D0002196C017D107C1F7DF91CF911F910F91E2
:1000E0000895413051F58B32910559F42AB181E0E0
:1000F00090E002C0880F991F6A95E2F7822B8AB9B7
:1001000008958532910559F424B181E090E002C050
:10011000880F991F6A95E2F7822B84B90895889712
:1001200009F047C027B181E090E002C0880F991F15
:100130006A95E2F7822B87B908958B32910569F4AD
:100140005AB121E030E0062E02C0220F331F0A947C
:10015000E2F7209525232AB91FC08532910569F45D
:1001600054B121E030E0062E02C0220F331F0A9462
:10017000E2F72095252324B90FC08832910561F458
:1001800057B121E030E0062E02C0220F331F0A943F
:10019000E2F72095252327B941110BC0FC014081CE
:1001A00021E030E002C0220F331F6A95E2F7242BD2
:1001B000208308958B32910549F489B190E002C003
:1001C000959587956A95E2F7817008958532910536
:1001D00049F483B190E002C0959587956A95E2F75E
:1001E00081700895889749F486B190E002C0959592
:1001F00087956A95E2F78170089580E00895FC0183
:1002000040FF0BC0208181E090E002C0880F991F61
:100210006A95E2F7822B80830895908121E030E097
:1002200002C0220F331F6A95E2F72095292320830D
:10023000089541E062E085E290E00E94710041E0B3
:1002400060E085E290E00E94710041E061E085E2BB
:1002500090E00E94710040E061E08BE290E00E943B
:10026000710008950F931F93CF93DF93082F40E001
:1002700061E085E290E00E94FF0040E060E085E2FE
:1002800090E00E94FF00C7E0D0E010E0A8010C2E33
:1002900002C0559547950A94E2F762E085E290E046
:1002A0000E94FF0041E060E085E290E00E94FF00D4
:1002B00040E060E085E290E00E94FF00219730F787
:1002C00041E061E085E290E00E94FF0040E061E0F3
:1002D00085E290E00E94FF00DF91CF911F910F9186
:1002E00008950E9419010F2EF0E0EF2EF1E0FF2E8D
:1002F000F02D00E111E0E70189910E94320161E0F7
:100300008BE290E00E94DA008130C9F384E190E052
:100310000E945B0061E08BE290E00E94DA0088239B
:10032000C9F384E190E00E945B00C017D10721F778
:06033000E2CFF894FFCFBC
:100336007E0CB69ECCDAFA0EFEDEEEF872BCF2E267
:00000001FF
