:100000000C9434000C949E000C94C7000C94510086
:100010000C9451000C9451000C9451000C9451001C
:100020000C9451000C9451000C9451000C9451000C
:100030000C9451000C9451000C94F0000C9451005D
:100040000C9451000C9451000C9423010C94510019
:100050000C9451000C9451000C9451000C945100DC
:100060000C9451000C94510011241FBECFEFD8E026
:10007000DEBFCDBF11E0A0E0B1E0E0EDF2E002C0F4
:1000800005900D92A831B107D9F721E0A8E1B1E0C0
:1000900001C01D92A132B207E1F70E9459000C94F1
:1000A00066010C94000061E088E290E00E944A0141
:1000B00008950E94530010921801E0E0F0E0E05F24
:1000C000FE4F608188E290E00E946301E091180198
:1000D000F0E0EE0FFF1FE050FF4F808191810E9402
:1000E0008800E0911801EF5FE0931801E83030F3E9
:1000F000E2CF009761F020E030E040E951E0FA0102
:100100003197F1F72F5F3F4F82179307C1F708959B
:100110000F931F93CF93DF93009759F08C01C0E0AA
:10012000D0E08AE090E00E94790021960C171D072C
:10013000C1F7DF91CF911F910F9108951F920F92F8
:100140000FB60F9211242F933F934F935F936F93AA
:100150007F938F939F93AF93BF93EF93FF93E89811
:10016000E0911B01F0911C010995E89AFF91EF9134
:10017000BF91AF919F918F917F916F915F914F91BF
:100180003F912F910F900FBE0F901F9018951F92C7
:100190000F920FB60F9211242F933F934F935F93BB
:1001A0006F937F938F939F93AF93BF93EF93FF933F
:1001B000E998E0911F01F09120010995E99AFF91DA
:1001C000EF91BF91AF919F918F917F916F915F91CF
:1001D0004F913F912F910F900FBE0F901F90189548
:1001E0001F920F920FB60F9211242F933F934F93AC
:1001F0005F936F937F938F939F93AF93BF93CF93AF
:10020000DF93EF93FF93CEE6D0E088818D7F8883E4
:10021000E0911901F0911A01099588818260888323
:10022000FF91EF91DF91CF91BF91AF919F918F910E
:100230007F916F915F914F913F912F910F900FBEE2
:100240000F901F9018951F920F920FB60F921124C6
:100250002F933F934F935F936F937F938F939F93CE
:10026000AF93BF93EF93FF93E0911D01F0911E01B7
:100270000995FF91EF91BF91AF919F918F917F91E0
:100280006F915F914F913F912F910F900FBE0F9003
:100290001F90189521E0613009F020E021958B3204
:1002A000910511F42AB909C08532910511F424B9D8
:1002B00004C08832910509F427B9611103C02FEFFA
:1002C000FC0120830895FC0160830895F894FFCF1A
:1002D000D0072003B80B9001E80320038813900196
:0802E000090B0C0A0919211198
:00000001FF
