:100000000C9467000C94AF090C94D8090C948400EC
:100010000C9484000C9484000C9484000C94840050
:100020000C9484000C9484000C9484000C94840040
:100030000C9484000C9484000C94010A0C948400A9
:100040000C9484000C9484000C94400A0C9484005A
:100050000C9484000C9484000C9484000C94840010
:100060000C9484000C9484004A013D023D02160168
:1000700098003D02D9013D023D023D023D02A30030
:10008000C0003D02BD003D023D02DD00B6003D0264
:100090003D023D023D023D023D023D023D023D0268
:1000A0003D023D023D023D024A013D023D02160174
:1000B00098003D02D9013D023D023D023D02A300F0
:1000C000C0003D02BD003D023D02DD00B60011242E
:1000D0001FBECFEFD8E0DEBFCDBF15E0A0E0B1E09E
:1000E000E2E0F0E202C005900D92A434B107D9F726
:1000F00025E0A4E4B5E001C01D92A036B207E1F707
:100100000E94ED020C94FF0F0C9400000F931F93BC
:10011000CF93DF930E94090490E0FC01E254F109BF
:10012000E333F10508F0A9C1EC5CFF4F0C94000D1E
:1001300080914505811104C081E0809345059DC1F2
:10014000109245059AC180914405813041F018F024
:10015000823049F092C181E0809344058EC182E0F3
:10016000809344058AC11092440587C10E94850688
:100170008FE891E00E941A0480C10E9420077DC18F
:100180008BE191E00E941A040E940904C82F882381
:10019000D9F30E941204CF7DCA3451F41092520553
:1001A0001092510580915105909152050E94F606DA
:1001B00083E491E00E941A0460C183E591E00E940B
:1001C0001A0480910101909102010E9463048AE85F
:1001D00094E00E941A040E946E088B019C010C534B
:1001E000110921093109043C1F4F2105310558F43B
:1001F00070930201609301018091010190910201CD
:100200000E94140704C08BE691E00E941A0482E960
:1002100091E00E941A0480910101909102010E94D4
:1002200063048FE891E00E941A0427C18AEA91E0F2
:100230000E941A040E940904C82F8823D9F38FEC66
:100240008C0F833008F4F3C0C837A1F7D7C080EA19
:100250000E946B0907C082EA0E946B0903C084EA0E
:100260000E946B098F3F89F461E081E00E94D90A06
:100270008CEB91E00E94230B8DEC91E00E941A041C
:1002800085E090E00E94FA08F8C08FED91E00E94AE
:100290001A04F3C084EE91E00E941A04E091000178
:1002A000F0E0EE0FFF1FEE0FFF1FEC50FC4F6081E0
:1002B00071818281938141E00E94CB048DEE93E0B5
:1002C0000E941A048AEF91E00E941A0484E392E0EB
:1002D0000E941A0480E792E00E941A040E94090416
:1002E000C82F8823D9F3D0EDD80FDA3018F088372B
:1002F000A9F7BFC00E941204C83729F48FE891E023
:100300000E941A04BAC0D093000180E792E00E94D4
:100310001A04E0910001F0E0EE0FFF1FEE0FFF1F47
:10032000EC50FC4F608171818281938140E00E949A
:10033000CB0482E892E00E941A0488EE93E00E94C7
:10034000E408E0910001F0E0EE0FFF1FEE0FFF1F49
:10035000EC50FC4F60817181828193810E94CF03B8
:100360000E94D50A61E081E00E94D90A82E792E00A
:100370000E94230B61E082E00E94D90AE091000113
:10038000F0E0EE0FFF1FEE0FFF1FEC50FC4F6081FF
:1003900071818281938140E00E949A0B8DEE93E0FF
:1003A0000E94230B80ED97E00E94E4080E94D50A8A
:1003B00064C08DE992E00E941A0488EA92E00E94EB
:1003C0001A0487EC92E00E941A0482E193E00E94F2
:1003D0001A048FE293E00E941A048CE493E00E94D6
:1003E0001A048BE793E00E941A048CE993E00E94C0
:1003F0001A0481EB93E00E941A043FC088E70E9430
:1004000012040E94D50A61E081E00E94D90A85ECBD
:1004100093E00E94230B88E70E941E0B89E095E081
:100420000E94230B8EEC93E00E941A042ECF8C2F97
:100430000E9412040E94D50A61E081E00E94D90A5C
:1004400085EC93E00E94230B8C2F0E941E0B89E009
:1004500095E00E94230B8EEC93E00E941A04C233B5
:1004600009F4F9CEC33309F4FACEC13309F4EFCE5F
:100470000CCF88E70E94120441CFDF91CF911F91EA
:100480000F9108950E94AD0A0E9481030E94AA0C58
:100490000E9410090E94020486E890E00E94340A3B
:1004A000E0910001F0E0EE0FFF1FEE0FFF1FEC5098
:1004B000FC4F60817181828193810E94CF0361E052
:1004C00086E495E00E941F0C62E083E191E00E94C7
:1004D0001F0C63E08BE091E00E941F0C64E083E05E
:1004E00091E00E941F0C0E94D50A61E081E00E9409
:1004F000D90A86ED93E00E94230B61E082E00E941E
:10050000D90A86EE93E00E94230BE0910001F0E00F
:10051000EE0FFF1FEE0FFF1FEC50FC4F608171814B
:100520008281938141E00E949A0B8CEE93E00E94BD
:10053000230B80EA9FE00E94E4080E94D50A0E94F3
:10054000E406909352058093510580915105909156
:100550005205019690935205809351050E9402071F
:100560009093020180930101809101019091020119
:10057000CC9760F48CE390E09093020180930101AA
:1005800080910101909102010E941407089561E099
:1005900081E00E94D90A80914F050E94430C8EE2AF
:1005A0000E941E0B80914E050E94430C8EE20E9419
:1005B0001E0B809157050E94430C80EF93E00E9430
:1005C000230B809153050E94430C8AE30E941E0B6B
:1005D000809150050E94430C0895CF93DF9300D083
:1005E000CDB7DEB70E9442020E94670AFF24F3944F
:1005F0000F2EFCE3EF2EF02D00E11EE00E944908D3
:1006000090935505809354050E94310680915605BC
:10061000209150054091530590E0E29E800D911D80
:100620001124409F9001419F300D1124820F931F90
:100630009A83898389819A81609101017091020175
:100640000E94CA0C892BF1F48091510590915205BA
:100650008F3F9F4020F010925205109251058091DB
:100660005105909152050E94F606609151057091D6
:100670005205CB010196909352058093510580EA73
:100680000E94B6050E94C70261E082E00E94D90A7A
:1006900080915105909152050E94320B8AE30E948D
:1006A0001E0B68E082E00E94D90A80915405909167
:1006B00055050E94B00760E182E00E94D90A80914E
:1006C00045058823A1F060914405809154059091DF
:1006D00055050E94E707DD24D394DF0C8F2D0E947F
:1006E0001E0B84E08D1538F4FF24F39405C080E2DE
:1006F0000E941E0B01C0FD2C88EE93E00E94E408CE
:100700007DCFE9EBF0E080818C7F808380EC80936B
:10071000B800089584EA8093BC00ECEBF0E080819F
:100720008823ECF7089584E98093BC0008958093B2
:10073000BB0084E88093BC00ECEBF0E08081882370
:10074000ECF78091B900887F883191F08091B900F1
:10075000887F883279F08091B900887F803261F09B
:100760009091B900987F81E0903339F080E008954E
:1007700080E0089580E0089581E00895811104C02B
:1007800084EC8093BC0003C084E88093BC00ECEB55
:10079000F0E080818823ECF78091BB000895DC01B4
:1007A000CB01880F991FAA1FBB1F880F991FAA1F73
:1007B000BB1F9C01AD01220F331F441F551F220F89
:1007C000331F441F551F60E074E284EF90E00E94E5
:1007D000DE0CDA01C9010197A109B109892F9A2F0D
:1007E000AB2FBB278093C50021502093C400E1ECC0
:1007F000F0E0808188618083E2ECF0E080818E60AF
:100800008083089560E875E280E090E00E94CF0365
:1008100008958091C00088231CF48091C60008953B
:1008200080E00895E0ECF0E0908195FFFDCF8093AB
:10083000C6000895CF93DF93EC018881882331F0BF
:1008400021960E94120489918111FBCFDF91CF91F3
:100850000895CF93DF930E9409048823E1F3C0ED4C
:10086000C80FCA30C0F70E9412040E9409048823EE
:10087000E1F3D0EDD80FDA30C0F70E941204CC0FAC
:100880008C2F880F880F8C0F8D0FDF91CF910895DB
:10089000CF93DF93D82FCDEC8C9FC12D1124C6951B
:1008A000C695C69580E38C0F0E941204CC0F8C2F46
:1008B000880F880FC80F8D2F8C1B805D0E9412043B
:1008C000DF91CF9108950F931F93CF93DF9300D0C3
:1008D00000D01F92CDB7DEB7FC0180E041E0480FA9
:1008E00001E010E00C0F1D1F080F111D9F01ADEC62
:1008F000BCEC0E94060D96958795969587959695E2
:1009000087959C01220F331F880F991F880F991F0D
:10091000880F991F820F931F9F01281B390BC90154
:10092000805DD8018C939F01ADECBCEC0E94060D5C
:10093000FC01F695E795F695E795F695E795842FF2
:10094000309761F6453070F480E211E0140FE1E079
:10095000F0E0EC0FFD1FE40FF11D8083412F1530F7
:10096000A1F703C0442369F0142F1150E1E0F0E037
:10097000EC0FFD1FE10FF11D80810E941204111187
:10098000F4CF0F900F900F900F900F90DF91CF91B9
:100990001F910F9108958F929F92AF92BF92DF9215
:1009A000EF92FF920F931F93CF93DF93CDB7DEB7F4
:1009B00028970FB6F894DEBF0FBECDBFD42E6115B9
:1009C00021EE720725EF820725E0920728F08CE1DF
:1009D00094E00E94230B52C020E00F2EFAE08F2EED
:1009E000912CA12CB12CF02D11E0120FEE24E394E8
:1009F000F12CEC0EFD1EE20EF11CA50194010E94EB
:100A0000DE0C605DF7016083622F732F842F952FBA
:100A1000212F611571058105910531F7183070F4AA
:100A200080E201E0010FE1E0F0E0EC0FFD1FE10FDB
:100A3000F11D8083102F0830A1F703C01123F1F0BE
:100A4000012F0150F1E0DF120CC0E1E0F0E0EC0F0B
:100A5000FD1FE00FF11D8081803271F00E941204B1
:100A60000BC0D11009C0E1E0F0E0EC0FFD1FE00F7A
:100A7000F11D80810E9412040111E3CF28960FB668
:100A8000F894DEBF0FBECDBFDF91CF911F910F91C4
:100A9000FF90EF90DF90BF90AF909F908F90089560
:100AA000FF920F931F93CF93DF9300D000D0CDB769
:100AB000DEB7F82E8B01000F111F000F111F000F62
:100AC000111FB8010E94130980935705B8016F5F89
:100AD0007F4F8F2D0E94130980934E05B8016E5FE2
:100AE0007F4F8F2D0E94130980934F05B8016D5FD2
:100AF0007F4F8F2D0E94130980935305B8016C5FBF
:100B00007F4F8F2D0E94130980935005B8016B5FB2
:100B10007F4F8F2D0E94130980935605B8016A5F9D
:100B20007F4F8F2D0E94130990E09A838983B8012B
:100B3000695F7F4F8F2D0E94130990E09C838B8308
:100B400089819A812B813C81982F8827822B932B36
:100B500090935505809354050F900F900F900F9030
:100B6000DF91CF911F910F91FF900895FF920F9306
:100B70001F93CF93DF931F92CDB7DEB7F82E40912E
:100B800057058B01000F111F000F111F000F111FC0
:100B9000B8010E94410940914E05B8016F5F7F4F37
:100BA0008F2D0E94410940914F05B8016E5F7F4F24
:100BB0008F2D0E94410940915305B8016D5F7F4F11
:100BC0008F2D0E94410940915005B8016C5F7F4F05
:100BD0008F2D0E94410940915605B8016B5F7F4FF0
:100BE0008F2D0E944109809154059091550599835C
:100BF0004981B8016A5F7F4F8F2D0E944109809122
:100C000054059091550589834981B801695F7F4FEB
:100C10008F2D0E9441090F90DF91CF911F910F916D
:100C2000FF9008956091570586E00E94B50C609191
:100C30004E0585E00E94B50C60914F0584E00E944E
:100C4000B50C6091530582E00E94B50C609150058F
:100C500081E00E94B50C6091560580E00E94B50CC1
:100C6000089586E00E94860C8093570585E00E94D7
:100C7000860C80934E0584E00E94860C80934F057D
:100C800082E00E94860C8093530581E00E94860CCE
:100C90008093500580E00E94860C8093560508954D
:100CA0000E94310681E394E00E941A0480914F056E
:100CB0000E9448048EE20E94120480914E050E9418
:100CC00048048EE20E94120484E10E94480480914C
:100CD00057050E94480480E20E9412048091530547
:100CE0000E9448048AE30E941204809150050E94E9
:100CF00048048AE30E941204809156050E94480429
:100D00008FE891E00E941A040895CF93DF930E9428
:100D1000500683E494E00E941A04C5E38C2F0E94DD
:100D2000120489E594E00E941A0488EE93E00E9480
:100D3000E4080E940904D82F811104C0C150CF32A9
:100D400069F73CC00E941204DF7DDA34D1F58BE5EF
:100D500094E00E941A0489E794E00E941A040E9419
:100D6000290480934F058EE894E00E941A040E94A3
:100D7000290480934E0583EA94E00E941A040E949D
:100D800029048093570588EB94E00E941A048CECA8
:100D900094E00E941A040E9429048093530581EE76
:100DA00094E00E941A040E94290480935005109236
:100DB00056050E9412060E94500603C080E00E9461
:100DC0001204DF91CF910895CF93DF9388E00E94C2
:100DD0006E0CC82FD0E0DC2FCC2789E00E946E0C6F
:100DE0009E01282BC901DF91CF910895CF93C82F81
:100DF000692F88E00E94960C6C2F89E00E94960C67
:100E0000CF910895CF93DF938AE00E946E0CC82F94
:100E1000D0E0DC2FCC278BE00E946E0C9E01282BAB
:100E2000C901DF91CF910895CF93C82F692F8AE030
:100E30000E94960C6C2F8BE00E94960CCF91089527
:100E4000BF92CF92DF92EF92FF920F931F93CF93B7
:100E5000DF9300D000D000D0CDB7DEB784E190E0C2
:100E60000E94E4088091510590915205892B09F464
:100E700067C000E010E00F2EF5E0BF2EF02D0F2E22
:100E8000F6EFCF2EF4E0DF2EF02D9E012F5F3F4FC7
:100E90007901B80180EA0E94500580914F050E94B7
:100EA00048048EE20E94120480914E050E9448047C
:100EB0008EE20E941204809157050E94480480E24D
:100EC0000E941204809153050E9448048AE30E9404
:100ED0001204809150050E9448048AE30E94120483
:100EE000809156050E9448048BE30E941204809171
:100EF00054059091550581118B2D20915405309109
:100F000055051F928F93832F330F990B9F938F93C8
:100F1000DF92CF92FF92EF920E94150DC7010E94BF
:100F20001A040F5F1F4F80915105909152050FB623
:100F3000F894DEBF0FBECDBF0817190708F4A9CF7C
:100F400026960FB6F894DEBF0FBECDBFDF91CF91CE
:100F50001F910F91FF90EF90DF90CF90BF90089579
:100F60000F931F93CF93DF93CDB7DEB761970FB683
:100F7000F894DEBF0FBECDBF292F807809F085E041
:100F80001F928F93822F922F990F990B99279F93DE
:100F90008F938FE095E09F938F938E010F5F1F4F8C
:100FA0001F930F930E94150DC8010E94230B0FB6CB
:100FB000F894DEBF0FBECDBF61960FB6F894DEBFCA
:100FC0000FBECDBFDF91CF911F910F910895CF93A9
:100FD000DF93CDB7DEB761970FB6F894DEBF0FBED3
:100FE000CDBF807809F085E0292F392F330F330BDF
:100FF0006130C9F018F0623059F13EC01F928F93F2
:1010000033273F932F9389E195E09F938F93CE01F0
:1010100001969F938F930E94150D0FB6F894DEBF33
:101020000FBECDBF29C01F928F9333273F932F93BD
:1010300086E295E09F938F93CE0101969F938F93C5
:101040000E94150D0FB6F894DEBF0FBECDBF14C0C1
:101050001F928F9333273F932F938FE295E09F93B7
:101060008F93CE0101969F938F930E94150D0FB61B
:10107000F894DEBF0FBECDBFCE0101960E941A04C8
:1010800061960FB6F894DEBF0FBECDBFDF91CF9152
:1010900008951F93CF93DF930E948A0380E90E94F3
:1010A000970380E00E9497030E9493030E948A03A3
:1010B00081E90E94970380E00E94BE03C82FD0E020
:1010C00081E00E94BE03182F0E9493039C2F882763
:1010D000812B8078DF91CF911F910895CF93DF937B
:1010E00000D000D000D0CDB7DEB71B821C821D829D
:1010F0001E821A820E94090489838823D9F3898178
:101100008A3009F441C089818D30F1F189818033C1
:10111000B8F189818A33A0F58B819C81AD81BE8134
:10112000880F991FAA1FBB1FAC01BD01440F551F9B
:10113000661F771F440F551F661F771F840F951F6B
:10114000A61FB71F8B839C83AD83BE8329814B81F0
:101150005C816D817E8130E0C901C097092E000C51
:10116000AA0BBB0B840F951FA61FB71F8B839C83F5
:10117000AD83BE838A818F5F8A8389810E94120436
:101180008A81853008F4B6CF8FE891E00E941A0476
:101190006B817C818D819E8126960FB6F894DEBF8F
:1011A0000FBECDBFDF91CF910895009761F020E091
:1011B00030E040E951E0FA013197F1F72F5F3F4FFE
:1011C00082179307C1F708950F931F93CF93DF936F
:1011D000009759F08C01C0E0D0E08AE090E00E94D6
:1011E000D50821960C171D07C1F7DF91CF911F91EC
:1011F0000F910895009769F40895FA013197F1F776
:1012000021503109D1F76F5F7F4F8617970729F477
:10121000089560E070E040E951E020E137E2EDCF71
:101220000E9481030895FF920F931F93CF93DF9342
:101230001F92CDB7DEB7182F062FF72E0E948A0314
:10124000812F0E9497038130A1F08F2D0E94970378
:10125000802F0E9497030E948A03812F81600E9441
:10126000970381E00E94BE0389830E9493038981D2
:1012700001C08FEF0F90DF91CF911F910F91FF90E1
:1012800008950F931F93CF93DF93C82F162F072F27
:10129000D42F0E948A038C2F0E949703802F0E94D4
:1012A0009703812F0E9497038D2F0E9497030E941E
:1012B000930381E090E00E94D5080E948A038C2F5E
:1012C0000E9497038130C9F30E949303DF91CF916D
:1012D0001F910F910895EF92FF920F931F93CF9359
:1012E000DF93182FC0E0D0E061E082E00E94D90ACD
:1012F000CE010E94320BBE01812F0E941309E82EFD
:101300004AEABE01812F0E944109BE01812F0E943D
:1013100013098A3AD1F445E56C2F7D2F812F0E9465
:1013200041096C2F7D2F812F0E941309853579F497
:101330004E2D6C2F7D2F812F0E9441092196C115C2
:1013400080E8D80789F680E003C08FEF01C08FEFF7
:10135000DF91CF911F910F91FF90EF9008951F9211
:101360000F920FB60F9211242F933F934F935F93D9
:101370006F937F938F939F93AF93BF93EF93FF935D
:10138000E898E0915A05F0915B050995E89AFF917C
:10139000EF91BF91AF919F918F917F916F915F91ED
:1013A0004F913F912F910F900FBE0F901F90189566
:1013B0001F920F920FB60F9211242F933F934F93CA
:1013C0005F936F937F938F939F93AF93BF93EF93AD
:1013D000FF93E998E0915E05F0915F050995E99A20
:1013E000FF91EF91BF91AF919F918F917F916F91FD
:1013F0005F914F913F912F910F900FBE0F901F90D3
:1014000018951F920F920FB60F9211242F933F93AE
:101410004F935F936F937F938F939F93AF93BF93FC
:10142000CF93DF93EF93FF93CEE6D0E088818D7F5B
:101430008883E0915805F09159050995888182606B
:101440008883FF91EF91DF91CF91BF91AF919F91F1
:101450008F917F916F915F914F913F912F910F905D
:101460000FBE0F901F901895CF93DF93EC010E9451
:101470000204D0935D05C0935C05DF91CF91089580
:101480001F920F920FB60F9211242F933F934F93F9
:101490005F936F937F938F939F93AF93BF93EF93DC
:1014A000FF93E0915C05F0915D050995FF91EF9147
:1014B000BF91AF919F918F917F916F915F914F916C
:1014C0003F912F910F900FBE0F901F901895E1EC58
:1014D000F0E0808180688083789408958AE090E0CD
:1014E0000E94D5080895CF93C82F0E948A038EE4E6
:1014F0000E9497038C2F0E9497030E949303CF9121
:101500000895CF93C82F8C600E94730A8C2F8B7F15
:1015100088600E94730ACF910895CF93C82F0E94CC
:101520006E0A8C2F807F0E94810A8C2F8295807F8B
:101530000E94810ACF910895CF93C82F0E946E0A0E
:101540008C2F807F81600E94810A8C2F8295807F02
:1015500081600E94810ACF9108958CE390E00E94FF
:10156000E4080E94810380E30E94810A84E190E004
:101570000E94E40880E30E94810A8AE090E00E94D1
:10158000E40880E30E94810A8AE090E00E94E40877
:1015900080E20E94810A88E20E948D0A8CE00E940B
:1015A0008D0A84E10E948D0A089581E00E948D0ACF
:1015B0000895833031F0843031F0823031F490E49A
:1015C00005C090E103C090E501C090E08FEF860F69
:1015D000890F80680E948D0A0895863D09F168F49C
:1015E000803B51F128F48C3519F1803819F10895B8
:1015F000853BE1F0843C71F00895843E59F028F475
:101600008C3D81F08F3D81F00895863F29F08C3F1D
:1016100029F0089581EE08958FEE089585EF0895DD
:101620008FEE089585EF089582EE089584EE089573
:1016300084EA089583ED08958FED08950E94ED0AE0
:101640000E949C0A0895CF93DF93EC018881882340
:1016500031F021960E941E0B89918111FBCFDF9101
:10166000CF9108950F931F93CF93DF9300D000D0B5
:101670001F92CDB7DEB7FC0180E041E0480F01E0EA
:1016800010E00C0F1D1F080F111D9F01ADECBCECED
:101690000E94060D969587959695879596958795C0
:1016A0009C01220F331F880F991F880F991F880FE5
:1016B000991F820F931F9F01281B390BC901805D61
:1016C000D8018C939F01ADECBCEC0E94060DFC018F
:1016D000F695E795F695E795F695E795842F30977B
:1016E00061F6453070F480E211E0140FE1E0F0E0C3
:1016F000EC0FFD1FE40FF11D8083412F1530A1F782
:1017000003C0442369F0142F1150E1E0F0E0EC0F26
:10171000FD1FE10FF11D80810E941E0B1111F4CFFE
:101720000F900F900F900F900F90DF91CF911F911E
:101730000F9108958F929F92AF92BF92DF92EF9296
:10174000FF920F931F93CF93DF93CDB7DEB7289708
:101750000FB6F894DEBF0FBECDBFD42E611521EEBB
:10176000720725EF820725E0920728F08AE395E0CB
:101770000E94230B52C020E00F2EFAE08F2E912CF6
:10178000A12CB12CF02D11E0120FEE24E394F12CDA
:10179000EC0EFD1EE20EF11CA50194010E94DE0C70
:1017A000605DF7016083622F732F842F952F212FA7
:1017B000611571058105910531F7183070F480E2EB
:1017C00001E0010FE1E0F0E0EC0FFD1FE10FF11D82
:1017D0008083102F0830A1F703C01123F1F0012FEF
:1017E0000150F1E0DF120CC0E1E0F0E0EC0FFD1F72
:1017F000E00FF11D8081803271F00E941E0B0BC042
:10180000D11009C0E1E0F0E0EC0FFD1FE00FF11D89
:1018100080810E941E0B0111E3CF28960FB6F89429
:10182000DEBF0FBECDBFDF91CF911F910F91FF9013
:10183000EF90DF90BF90AF909F908F9008950F939F
:101840001F93CF93DF938C016830A0F4660F660F6F
:10185000660F862F887380640E948D0A0BC0899161
:101860000E941E0BC017D107D1F761E081E00E94F2
:10187000D90A04C0E801085F1F4FF1CFDF91CF9173
:101880001F910F910895CF93DF9300D01F92CDB792
:10189000DEB7FE013196BE016C5F7F4F4DEC849F39
:1018A000912D1124969596959695392F330F232FC8
:1018B000220F220F230F821B805D8193892FE61751
:1018C000F70769F78A810E941E0B89810E941E0B0F
:1018D0000F900F900F90DF91CF910895CF93C82F65
:1018E0000E948A0380ED0E9497038C2F0E94970329
:1018F0000E948A0381ED0E94970381E00E94BE034B
:10190000C82F0E9493038C2FCF9108950E946E0CD4
:10191000382F3F70982F9077969596959695292F0A
:10192000220F220F892F820F830F0895CF93DF9309
:10193000D82FC62F0E948A0380ED0E9497038D2F17
:101940000E9497038C2F0E9497030E949303DF91BC
:10195000CF9108950E94810380E00E946E0C682F51
:101960006F7780E00E94960C08959DEC699F912D01
:10197000112496959695969540E1949F9001112497
:10198000990F392F330F330F930F691B622B0E946E
:10199000960C0895AA1BBB1B51E107C0AA1FBB1FD1
:1019A000A617B70710F0A61BB70B881F991F5A95EB
:1019B000A9F780959095BC01CD010895A1E21A2E5A
:1019C000AA1BBB1BFD010DC0AA1FBB1FEE1FFF1FE3
:1019D000A217B307E407F50720F0A21BB30BE40B33
:1019E000F50B661F771F881F991F1A9469F760957A
:1019F0007095809590959B01AC01BD01CF01089534
:101A0000EE0FFF1F0590F491E02D0994A29FB00105
:101A1000B39FC001A39F700D811D1124911DB29F22
:101A2000700D811D1124911D0895AEE0B0E0EBE131
:101A3000FDE00C94D60F0D891E8986E08C831A83F5
:101A400009838FEF9FE79E838D83AE01475E5F4FD3
:101A50006F89788DCE0101960E94370DEF81F88550
:101A6000E00FF11F10822E96E4E00C94F20FABE031
:101A7000B0E0EDE3FDE00C94C80F6C017B018A013E
:101A8000FC0117821682838181FFCCC1CE010196B1
:101A90003C01F6019381F70193FD859193FF8191BC
:101AA0007F01882309F4BAC1853239F493FD859109
:101AB00093FF81917F01853229F4B60190E00E9465
:101AC0002E0FE7CF912C212C312CFFE1F315D8F00C
:101AD0008B3279F038F4803279F08332A1F4232DFF
:101AE00020611DC08D3261F0803369F4232D2160A7
:101AF00016C0832D8260382EE32DE4603E2E2AC06E
:101B0000F32DF8601DC037FC2DC020ED280F2A30C2
:101B100040F08E32B9F436FC81C1232D2064322E80
:101B200019C036FE06C08AE0989E200D1124922E20
:101B300011C0EAE02E9E200D1124222EF32DF0621A
:101B40003F2E08C08C3621F4832D8068382E02C0C9
:101B5000883641F4F70193FD859193FF81917F01D0
:101B60008111B3CF982F9F7D9554933028F40C5F4B
:101B70001F4F9FE399830DC0833631F0833771F097
:101B8000833509F059C021C0F801808189830E5F37
:101B90001F4F88248394912C530113C02801F2E035
:101BA0004F0E511CF801A080B18036FE03C0692D94
:101BB00070E002C06FEF7FEFC5010E94230F4C0160
:101BC0008201F32DFF773F2E16C0280122E0420E3E
:101BD000511CF801A080B18036FE03C0692D70E071
:101BE00002C06FEF7FEFC5010E94180F4C01F32D6B
:101BF000F0683F2E820133FC1BC0822D90E08816D6
:101C00009906B0F4B60180E290E00E942E0F2A946B
:101C1000F4CFF50137FC859137FE81915F01B60164
:101C200090E00E942E0F21102A9421E0821A910840
:101C30008114910471F7E8C0843611F0893641F5BA
:101C4000F80137FE07C060817181828193810C5F4A
:101C50001F4F08C060817181072E000C880B990B03
:101C60000E5F1F4FF32DFF763F2E97FF09C0909513
:101C70008095709561957F4F8F4F9F4FF0683F2EF5
:101C80002AE030E0A3010E946A0F882E861845C022
:101C9000853731F4232D2F7EB22E2AE030E025C087
:101CA000932D997FB92E8F36C1F018F4883579F0CD
:101CB000B5C0803719F0883721F0B0C0E92FE06156
:101CC000BE2EB4FE0DC0FB2DF460BF2E09C034FE45
:101CD0000AC0292F2660B22E06C028E030E005C0D9
:101CE00020E130E002C020E132E0F801B7FE07C099
:101CF00060817181828193810C5F1F4F06C060817A
:101D0000718180E090E00E5F1F4FA3010E946A0F77
:101D1000882E8618FB2DFF773F2E36FE0DC0232D13
:101D20002E7FA22E891458F434FE0BC032FC09C059
:101D3000832D8E7EA82E05C0B82CA32C03C0B82CF2
:101D400001C0B92CA4FE0FC0FE01E80DF11D808179
:101D5000803321F49A2D997EA92E09C0A2FE06C0D7
:101D6000B394B39404C08A2D867809F0B394A3FC8D
:101D700011C0A0FE06C0B21488F4280C922C9B1847
:101D80000EC0B21460F4B60180E290E00E942E0F03
:101D9000B394F7CFB21418F42B1802C0982C212C4E
:101DA000A4FE10C0B60180E390E00E942E0FA2FEB8
:101DB00017C0A1FC03C088E790E002C088E590E06E
:101DC000B6010CC08A2D867859F0A1FE02C08BE2C4
:101DD00001C080E2A7FC8DE2B60190E00E942E0FC8
:101DE000891438F4B60180E390E00E942E0F9A9493
:101DF000F7CF8A94F301E80DF11D8081B60190E0E0
:101E00000E942E0F8110F5CF222009F442CEB60198
:101E100080E290E00E942E0F2A94F6CFF601868190
:101E2000978102C08FEF9FEF2B96E2E10C94E40FB5
:101E3000FC010590615070400110D8F78095909595
:101E40008E0F9F1F0895FC0161507040019001109A
:101E5000D8F7809590958E0F9F1F08950F931F932D
:101E6000CF93DF93FB01238121FD03C08FEF9FEF11
:101E70002CC022FF16C0468157812481358142172C
:101E8000530744F4A081B1819D012F5F3F4F3183FF
:101E900020838C93268137812F5F3F4F37832683A2
:101EA00014C08B01EC01FB010084F185E02D099544
:101EB000892BE1F6D80116968D919C911797019682
:101EC00017969C938E931697CE01DF91CF911F9119
:101ED0000F910895FA01AA27283051F1203181F19C
:101EE000E8946F936E7F6E5F7F4F8F4F9F4FAF4F22
:101EF000B1E03ED0B4E03CD0670F781F891F9A1F35
:101F0000A11D680F791F8A1F911DA11D6A0F711DE8
:101F1000811D911DA11D20D009F468943F912AE0F4
:101F2000269F11243019305D3193DEF6CF010895DC
:101F3000462F4770405D4193B3E00FD0C9F7F6CF0D
:101F4000462F4F70405D4A3318F0495D31FD4052D5
:101F5000419302D0A9F7EACFB4E0A695979587956B
:101F600077956795BA95C9F700976105710508954A
:101F70009B01AC010A2E06945795479537952795F6
:101F8000BA95C9F7620F731F841F951FA01D08958E
:101F90002F923F924F925F926F927F928F929F9279
:101FA000AF92BF92CF92DF92EF92FF920F931F9367
:101FB000CF93DF93CDB7DEB7CA1BDB0B0FB6F89418
:101FC000DEBF0FBECDBF09942A88398848885F8458
:101FD0006E847D848C849B84AA84B984C884DF80C9
:101FE000EE80FD800C811B81AA81B981CE0FD11DAD
:101FF0000FB6F894DEBF0FBECDBFED010895F89483
:02200000FFCF10
:1020020002780004020905150509020000080414FB
:102012000408000000000010000000416C6C652004
:10202200446174656E73E4747A65207765726465E1
:102032006E2067656CF673636874205B6A2F6E5D51
:102042003A2000202E2E2E67656CF6736368742189
:102052000A0D000A0D53616D706C65696E746572CC
:1020620076616C6C20696E20735B00363073203CA5
:102072003D2053616D70656C696E74657276616C3A
:102082006C203C3D20363535333573202121210A21
:102092000D004E657565732053616D70656C696ED8
:1020A20074657276616C6C3A2000205B312C322CA4
:1020B200332C783D657869745D3A20002153706550
:1020C20069636865726665686C6572210053706544
:1020D20069636865726665686C6572210A0D004FF6
:1020E2004B0A0D000A0D416B7475656C6C652042DC
:1020F200617564726174653A20000A0D20783A6550
:10210200786974202020303A323430302020203157
:102112003A34383030202020323A393630302020DC
:102122002020333A3139323030202020343A3338CB
:10213200343030000A0D20202020202020202020B2
:10214200353A35373630302020363A373638303067
:102152002020373A3235303030302020383A35308E
:10216200303030302020393A3130303030303000A9
:102172000A0D4E6575652042617564726174653A37
:102182002000426420616D205465726D696E616C3D
:102192002065696E7374656C6C656E21000A0D486A
:1021A200696C66653A0A0D00743A20446174756D73
:1021B20020756E64205A6569742065696E73746552
:1021C2006C6C656E0A0D00663A2054656D7065721E
:1021D2006174757220666F72746C617566656E6487
:1021E20020617573676562656E0A0D2020205B6D44
:1021F2003A20556D736368616C74656E2064657313
:1022020020416E7A656967652D4D6F6475735D0A4D
:102212000D00703A20416C6C6520446174656E73E8
:10222200E4747A6520647275636B656E0A0D006EE4
:102232003A204175667A656963686E756E67206ECD
:1022420065757374617274656E0A0D00733A20537A
:10225200616D706C65696E74657276616C6C206517
:10226200696E7374656C6C656E205B64656661751E
:102272006C7420313230735D0A0D00653A20454599
:1022820050524F4D2053706569636865727465736F
:1022920074205B312C322C335D0A0D00623A2042ED
:1022A2006175647261746520E46E6465726E0A0D14
:1022B20000683A2048696C666520616E7A656967D4
:1022C200656E0A0D00454550524F4D202300207285
:1022D200756E2E2E2E0046455320446174656E6C39
:1022E2006F6767657200434F4D3A200020426400D9
:1022F2002020200060090000C0120000802500009C
:10230200004B00000096000000E10000002C0100DC
:1023120090D0030020A1070040420F006572723A7C
:1023220020576572743E39392E3939392E39393987
:10233200000A0D416B7475656C6C65205A65697491
:102342003A2000556872207374656C6C656E205B70
:102352006A2F6E5D203F3A200008000A0D2A2A2AC1
:102362002A2A20416B7475656C6C65732044617414
:10237200756D202A2A2A2A2A000A0D546167202014
:102382002020205B30312E2E33315D3A20000A0DA1
:102392004D6F6E61742020205B30312E2E31325D04
:1023A2003A20000A0D4A616872202020205B3030FA
:1023B2002E2E39395D3A20000A0D416B7475656C19
:1023C2006C65205568727A6569743A000A0D537417
:1023D200756E646520205B30312E2E32345D3A20DA
:1023E200000A0D4D696E7574656E205B30302E2EBD
:1023F20035395D3A20002533642C2531750A0D00EC
:10240200454550524F4D2023312074657374002589
:1024120033642C253175B0430054313D2533642E8D
:102422002531750D0A002533642E2531750D0025E1
:1024320033642E253175B0430D00657272203E6DF6
:0424420061780000BD
:00000001FF
