S0170000365F335F446174656E6C6F676765722E737265637A
S11300000C9464000C94BC070C94E5070C948100D8
S11300100C9481000C9481000C9481000C94810058
S11300200C9481000C9481000C9481000C94810048
S11300300C9481000C9481000C940E080C948100A3
S11300400C9481000C9481000C944D080C94810054
S11300500C9481000C9481000C9481000C94810018
S11300600C9481000C9481000201940036011A0161
S113007036013601360136019F00BB003601B80057
S113008036013601D700B200360136013601360199
S113009036013601360136013601360136013601A4
S11300A036013601360136010201940036011A0187
S11300B036013601360136019F00BB003601B80017
S11300C036013601D700B20011241FBECFEFD8E0AD
S11300D0DEBFCDBF13E0A0E0B1E0E2E1FBE102C08E
S11300E005900D92AC38B107D9F723E0ACE8B3E042
S11300F001C01D92A83AB207E1F70E94C2010C9414
S1130100870D0C9400000F931F93CF930E94DE027F
S113011090E0FC01E554F109E033F10508F0A6C0D4
S1130120EC5CFF4F0C94880A80918D03811104C00C
S113013081E080938D039AC010928D0397C08091C3
S11301408C03813041F018F0823049F08FC081E097
S113015080938C038BC082E080938C0387C01092C1
S11301608C0384C00E9480048AE00E94E7027EC05F
S11301700E9435057BC08AE191E00E94EF020E9453
S1130180DE02C82F8823D9F30E94E702CF7DCA3448
S113019051F410929A0310929903809199039091CB
S11301A09A030E940B058AE00E94E7025FC082E482
S11301B091E00E94EF0280910001909101010E9460
S11301C0370383EE92E00E94EF020E9483068B01C4
S11301D09C010C53110921093109043C1F4F2105CD
S11301E0310558F47093010160930001809100017E
S11301F0909101010E94290539C085E591E00E9492
S1130200EF0234C00E94E20861E081E00E94E60847
S113021086E791E00E94300980EA0E9465078F3FDB
S113022029F561E081E00E94E60885E891E00E94FA
S11302303009FFCF86E991E00E94EF028FE991E057
S11302400E94EF028DEB91E00E94EF0286E092E0C3
S11302500E94EF0282E292E00E94EF028EE392E0BB
S11302600E94EF0288E692E00E94EF02CF911F9174
S11302700F9108950E94BA080E9456020E94320A01
S11302800E940E070E94D70283E890E00E94410872
S113029061E08EE893E00E94A70962E082E191E0C8
S11302A00E94A70963E08AE091E00E94A70964E044
S11302B082E091E00E94A7090E94E20861E081E0E7
S11302C00E94E60880E892E00E94300961E082E042
S11302D00E94E60880E992E00E94300980EA9FE0EB
S11302E00E94F8060E94E2080E94F90490939A037F
S11302F0809399038091990390919A030196909326
S11303009A03809399030E941705909301018093A7
S113031000018091000190910101CC9760F48CE37D
S113032090E09093010180930001809100019091ED
S113033001010E942905089561E081E00E94E60818
S1130340809197030E94CB098EE20E942B09809131
S113035096030E94CB098EE20E942B0980919F0391
S11303600E94CB098CE992E00E94300980919B03A2
S11303700E94CB098AE30E942B09809198030E9472
S1130380CB090895CF93DF9300D0CDB7DEB70E9499
S11303903A010E947408FF24F3940F2EFCE3EF2E1D
S11303A0F02D00E11EE00E945E0690939D03809371
S11303B09C030E94DA0480919E032091980340914B
S11303C09B0390E0E29E800D911D1124409F9001BB
S11303D0419F300D1124820F931F9A838983898151
S11303E09A8160910001709101010E94520A892B47
S11303F0F1F48091990390919A038F3F9F4020F0EC
S113040010929A03109299038091990390919A0300
S11304100E940B056091990370919A03CB01019698
S113042090939A038093990380EA0E9405040E94A2
S11304309C0161E082E00E94E6088091990390911A
S11304409A030E943F098AE30E942B0968E082E034
S11304500E94E60880919C0390919D030E94C5052B
S113046060E182E00E94E60880918D038823A1F078
S113047060918C0380919C0390919D030E94FC05E4
S1130480DD24D394DF0C8F2D0E942B0984E08D157D
S113049038F4FF24F39405C080E20E942B0901C0C4
S11304A0FD2C88EE93E00E94F8067DCFE9EBF0E0A6
S11304B080818C7F808380EC8093B800089584EAE7
S11304C08093BC00ECEBF0E080818823ECF7089586
S11304D084E98093BC0008958093BB0084E88093F2
S11304E0BC00ECEBF0E080818823ECF78091B9004C
S11304F0887F883191F08091B900887F883279F0C3
S11305008091B900887F803261F09091B900987F22
S113051081E0903339F080E0089580E0089580E030
S1130520089581E00895811104C084EC8093BC0097
S113053003C084E88093BC00ECEBF0E08081882366
S1130540ECF78091BB000895E1ECF0E02081286194
S11305502083E2ECF0E020812E602083DC01CB01DB
S1130560880F991FAA1FBB1F880F991FAA1FBB1FA3
S11305709C01AD01220F331F441F551F220F331F4F
S1130580441F551F60E074E284EF90E00E94660A05
S1130590DA01C9010197A109B109892F9A2FAB2F5B
S11305A0BB278093C50021502093C400089560E8C0
S11305B075E280E090E00E94A40208958091C0005A
S11305C088231CF48091C600089580E00895E0EC2F
S11305D0F0E0908195FFFDCF8093C6000895CF93FE
S11305E0DF93EC018881882331F021960E94E70291
S11305F089918111FBCFDF91CF910895CF93DF9340
S11306000E94DE028823E1F3D0EDD80FDA30C0F780
S11306100E94E7020E94DE02C82F8823D9F30E94B9
S1130620E702DD0F8D2F880F880FD80F80ED8D0F17
S11306308C0FDF91CF910895CF93DF93D82FCDEC1A
S11306408C9FC12D1124C695C695C69580E38C0F49
S11306500E94E702CC0F8C2F880F880FC80F8D2FB4
S11306608C1B805D0E94E702DF91CF9108950F9368
S11306701F93CF93DF9300D000D01F92CDB7DEB786
S1130680FC0180E041E0480F01E010E00C0F1D1F69
S1130690080F111D9F01ADECBCEC0E948E0A9695CB
S11306A0879596958795969587959C01220F331F7C
S11306B0880F991F880F991F880F991F820F931F06
S11306C09F01281B390BC901805DD8018C939F01C0
S11306D0ADECBCEC0E948E0AFC01F695E795F6950C
S11306E0E795F695E795842F309761F6453070F4D9
S11306F080E211E0140FE1E0F0E0EC0FFD1FE40FE5
S1130700F11D8083412F1530A1F703C0442369F004
S1130710142F1150E1E0F0E0EC0FFD1FE10FF11D8B
S113072080810E94E7021111F4CF0F900F900F9077
S11307300F900F90DF91CF911F910F910895FF9229
S11307400F931F93CF93DF9300D000D0CDB7DEB7C4
S1130750F82E8B01000F111F000F111F000F111F26
S1130760B8010E94110780939F03B8016F5F7F4F08
S11307708F2D0E94110780939603B8016E5F7F4FFF
S11307808F2D0E94110780939703B8016D5F7F4FEF
S11307908F2D0E94110780939B03B8016C5F7F4FDC
S11307A08F2D0E94110780939803B8016B5F7F4FD0
S11307B08F2D0E94110780939E03B8016A5F7F4FBB
S11307C08F2D0E94110790E09A838983B801695F95
S11307D07F4F8F2D0E94110790E09C838B8389812A
S11307E09A812B813C81982F8827822B932B90937D
S11307F09D0380939C030F900F900F900F90DF91B7
S1130800CF911F910F91FF900895FF920F931F9323
S1130810CF93DF931F92CDB7DEB7F82E40919F039D
S11308208B01000F111F000F111F000F111FB801C2
S11308300E943B0740919603B8016F5F7F4F8F2D55
S11308400E943B0740919703B8016E5F7F4F8F2D45
S11308500E943B0740919B03B8016D5F7F4F8F2D32
S11308600E943B0740919803B8016C5F7F4F8F2D26
S11308700E943B0740919E03B8016B5F7F4F8F2D11
S11308800E943B0780919C0390919D039983498129
S1130890B8016A5F7F4F8F2D0E943B0780919C03B4
S11308A090919D0389834981B801695F7F4F8F2DA2
S11308B00E943B070F90DF91CF911F910F91FF9002
S11308C0089560919F0386E00E943D0A609196031B
S11308D085E00E943D0A6091970384E00E943D0AEE
S11308E060919B0382E00E943D0A6091980381E03D
S11308F00E943D0A60919E0380E00E943D0A089593
S1130900CF93DF9380EA92E00E94EF02C5E38C2F3D
S11309100E94E70288E00E94E70288EE93E00E94CA
S1130920F8060E94DE02D82F811104C0C150CF32D4
S113093071F73AC00E94E702DF7DDA34C1F586EB35
S113094092E00E94EF0283ED92E00E94EF020E9487
S1130950FE028093970387EE92E00E94EF020E94CA
S1130960FE02809396038BEF92E00E94EF020E94B6
S1130970FE0280939F038FE093E00E94EF0282E2E5
S113098093E00E94EF020E94FE0280939B0386E3A1
S113099093E00E94EF020E94FE028093980310925B
S11309A09E030E94610403C080E00E94E702DF917D
S11309B0CF91089586E00E940E0A80939F0385E0FC
S11309C00E940E0A8093960384E00E940E0A80938C
S11309D0970382E00E940E0A80939B0381E00E94A9
S11309E00E0A8093980380E00E940E0A80939E036F
S11309F00895CF93DF9388E00E94F609C82FD0E0D2
S1130A00DC2FCC2789E00E94F6099E01282BC9011E
S1130A10DF91CF910895CF93C82F692F88E00E946A
S1130A201E0A6C2F89E00E941E0ACF910895CF936D
S1130A30DF938AE00E94F609C82FD0E0DC2FCC2790
S1130A408BE00E94F6099E01282BC901DF91CF910A
S1130A500895CF93C82F692F8AE00E941E0A6C2F35
S1130A608BE00E941E0ACF910895BF92CF92DF922D
S1130A70EF92FF920F931F93CF93DF9300D000D098
S1130A8000D0CDB7DEB784E190E00E94F8068091F3
S1130A90990390919A03892B09F467C000E010E050
S1130AA00F2EF5E0BF2EF02D0F2EFAE4CF2EF3E03B
S1130AB0DF2EF02D9E012F5F3F4F7901B80180EAB0
S1130AC00E949F03809197030E941C038EE20E9460
S1130AD0E702809196030E941C038EE20E94E702C3
S1130AE080919F030E941C0380E20E94E702809190
S1130AF09B030E941C038AE30E94E70280919803EF
S1130B000E941C038AE30E94E70280919E030E94D4
S1130B101C038BE30E94E70280919C0390919D0348
S1130B2081118B2D20919C0330919D031F928F93F3
S1130B30832F330F990B9F938F93DF92CF92FF9262
S1130B40EF920E949D0AC7010E94EF020F5F1F4FA0
S1130B508091990390919A030FB6F894DEBF0FBE6B
S1130B60CDBF0817190708F4A9CF26960FB6F89435
S1130B70DEBF0FBECDBFDF91CF911F910F91FF90CC
S1130B80EF90DF90CF90BF9008950F931F93CF9372
S1130B90DF93CDB7DEB761970FB6F894DEBF0FBE13
S1130BA0CDBF292F807809F085E01F928F93822F83
S1130BB0922F990F990B99279F938F9383E593E035
S1130BC09F938F938E010F5F1F4F1F930F930E946C
S1130BD09D0AC8010E9430090FB6F894DEBF0FBE0B
S1130BE0CDBF61960FB6F894DEBF0FBECDBFDF91C7
S1130BF0CF911F910F910895CF93DF93CDB7DEB7B7
S1130C0061970FB6F894DEBF0FBECDBF807809F0B0
S1130C1085E0292F392F330F330B6130C9F018F0D9
S1130C20623059F13EC01F928F9333273F932F9325
S1130C308DE593E09F938F93CE0101969F938F93BD
S1130C400E949D0A0FB6F894DEBF0FBECDBF29C027
S1130C501F928F9333273F932F938AE693E09F93BA
S1130C608F93CE0101969F938F930E949D0A0FB696
S1130C70F894DEBF0FBECDBF14C01F928F933327ED
S1130C803F932F9383E793E09F938F93CE01019635
S1130C909F938F930E949D0A0FB6F894DEBF0FBEF8
S1130CA0CDBFCE0101960E94EF0261960FB6F89473
S1130CB0DEBF0FBECDBFDF91CF9108951F93CF93B9
S1130CC0DF930E945F0280E90E946C0280E00E9430
S1130CD06C020E9468020E945F0281E90E946C0219
S1130CE080E00E949302C82FD0E081E00E9493022A
S1130CF0182F0E9468029C2F8827812B8078DF910F
S1130D00CF911F910895CF93DF9300D000D000D0EE
S1130D10CDB7DEB71B821C821D821E821A820E94FE
S1130D20DE0289838823D9F389818A3009F441C09A
S1130D3089818D30F1F189818033B8F189818A33D9
S1130D40A0F58B819C81AD81BE81880F991FAA1F5C
S1130D50BB1FAC01BD01440F551F661F771F440F15
S1130D60551F661F771F840F951FA61FB71F8B8300
S1130D709C83AD83BE8329814B815C816D817E819F
S1130D8030E0C901C097092E000CAA0BBB0B840FDD
S1130D90951FA61FB71F8B839C83AD83BE838A8157
S1130DA08F5F8A8389810E94E7028A81853008F4F3
S1130DB0B6CF8AE00E94E7026B817C818D819E819F
S1130DC026960FB6F894DEBF0FBECDBFDF91CF914C
S1130DD00895009761F020E030E040E951E0FA0125
S1130DE03197F1F72F5F3F4F82179307C1F70895AB
S1130DF00F931F93CF93DF93009759F08C01C0E0BA
S1130E00D0E08AE090E00E94E90621960C171D07C5
S1130E10C1F7DF91CF911F910F9108950E9456025F
S1130E200895FF920F931F93CF93DF931F92CDB733
S1130E30DEB7182F062FF72E0E945F02812F0E9423
S1130E406C028F2D0E946C02802F0E946C020E9403
S1130E505F02812F81600E946C0281E00E949302F4
S1130E6089830E94680289810F90DF91CF911F913D
S1130E700F91FF9008950F931F93CF93DF93C82F83
S1130E80162F072FD42F0E945F028C2F0E946C0212
S1130E90802F0E946C02812F0E946C028D2F0E9471
S1130EA06C020E94680281E090E00E94E9060E94C0
S1130EB05F028C2F0E946C028130C9F30E94680289
S1130EC0DF91CF911F910F9108950F931F93CF93AB
S1130ED0DF93182FC0E0D0E0BE01812F0E941107DC
S1130EE0082F61E082E00E94E608CE010E943F09DB
S1130EF08EE793E00E9430094AEABE01812F0E94E6
S1130F003B07BE01812F0E9411078A3AA1F483E8AE
S1130F1093E00E94300985E893E00E94300945E59A
S1130F20BE01812F0E943B07BE01812F0E94110741
S1130F30853539F017C08AE893E00E9430098FEFB5
S1130F4016C083E893E00E943009402FBE01812F30
S1130F500E943B072196C11581E0D80709F0BCCF58
S1130F6080E005C08AE893E00E9430098FEFDF91AA
S1130F70CF911F910F9108951F920F920FB60F9268
S1130F8011242F933F934F935F936F937F938F938A
S1130F909F93AF93BF93EF93FF93E898E091A203DD
S1130FA0F091A3030995E89AFF91EF91BF91AF9156
S1130FB09F918F917F916F915F914F913F912F916D
S1130FC00F900FBE0F901F9018951F920F920FB69F
S1130FD00F9211242F933F934F935F936F937F93BB
S1130FE08F939F93AF93BF93EF93FF93E998E0910F
S1130FF0A603F091A7030995E99AFF91EF91BF9198
S1131000AF919F918F917F916F915F914F913F919C
S11310102F910F900FBE0F901F9018951F920F9253
S11310200FB60F9211242F933F934F935F936F93B7
S11310307F938F939F93AF93BF93CF93DF93EF935C
S1131040FF93CEE6D0E088818D7F8883E091A00372
S1131050F091A1030995888182608883FF91EF91C3
S1131060DF91CF91BF91AF919F918F917F916F91BC
S11310705F914F913F912F910F900FBE0F901F9052
S11310801895CF93DF93EC010E94D702D093A50368
S1131090C093A403DF91CF9108951F920F920FB6CE
S11310A00F9211242F933F934F935F936F937F93EA
S11310B08F939F93AF93BF93EF93FF93E091A40318
S11310C0F091A5030995FF91EF91BF91AF919F9185
S11310D08F917F916F915F914F913F912F910F90DD
S11310E00FBE0F901F901895E1ECF0E080818068AE
S11310F08083789408958AE090E00E94E906089538
S1131100CF93C82F0E945F028EE40E946C028C2F42
S11311100E946C020E946802CF910895CF93C82F59
S11311208C600E9480088C2F8B7F88600E948008CE
S1131130CF910895CF93C82F0E947B088C2F807F76
S11311400E948E088C2F8295807F0E948E08CF91FA
S11311500895CF93C82F0E947B088C2F807F8160D5
S11311600E948E088C2F8295807F81600E948E0859
S1131170CF9108958CE390E00E94F8060E945602F5
S113118080E30E948E0884E190E00E94F80680E3E8
S11311900E948E088AE090E00E94F80680E30E9494
S11311A08E088AE090E00E94F80680E20E948E0891
S11311B088E20E949A088CE00E949A0884E10E94C6
S11311C09A08089581E00E949A080895833031F0C6
S11311D0843031F0823031F490E405C090E103C0F2
S11311E090E501C090E08FEF860F890F80680E9420
S11311F09A080895863D09F168F4803B51F128F47A
S11312008C3519F1803819F10895853BE1F0843C5F
S113121071F00895843E59F028F48C3D81F08F3D9F
S113122081F00895863F29F08C3F29F0089581EEDE
S113123008958FEE089585EF08958FEE089585EF54
S1131240089582EE089584EE089584EA089583ED66
S113125008958FED08950E94FA080E94A908089540
S1131260CF93DF93EC018881882331F021960E948B
S11312702B0989918111FBCFDF91CF9108950F93B1
S11312801F93CF93DF9300D000D01F92CDB7DEB76A
S1131290FC0180E041E0480F01E010E00C0F1D1F4D
S11312A0080F111D9F01ADECBCEC0E948E0A9695AF
S11312B0879596958795969587959C01220F331F60
S11312C0880F991F880F991F880F991F820F931FEA
S11312D09F01281B390BC901805DD8018C939F01A4
S11312E0ADECBCEC0E948E0AFC01F695E795F695F0
S11312F0E795F695E795842F309761F6453070F4BD
S113130080E211E0140FE1E0F0E0EC0FFD1FE40FC8
S1131310F11D8083412F1530A1F703C0442369F0E8
S1131320142F1150E1E0F0E0EC0FFD1FE10FF11D6F
S113133080810E942B091111F4CF0F900F900F9010
S11313400F900F90DF91CF911F910F9108950F93FC
S11313501F93CF93DF938C016830A0F4660F660F60
S1131360660F862F887380640E949A080BC0899147
S11313700E942B09C017D107D1F761E081E00E94D8
S1131380E60804C0E801085F1F4FF1CFDF91CF9159
S11313901F910F910895CF93DF9300D01F92CDB783
S11313A0DEB7FE013196BE016C5F7F4F4DEC849F2A
S11313B0912D1124969596959695392F330F232FB9
S11313C0220F220F230F821B805D8193892FE61742
S11313D0F70769F78A810E942B0989810E942B09EA
S11313E00F900F900F90DF91CF910895CF93C82F56
S11313F00E945F0280ED0E946C028C2F0E946C029E
S11314000E945F0281ED0E946C0281E00E949302BF
S1131410C82F0E9468028C2FCF9108950E94F6096C
S1131420382F3F70982F9077969596959695292FFB
S1131430220F220F892F820F830F0895CF93DF93FA
S1131440D82FC62F0E945F0280ED0E946C028D2F60
S11314500E946C028C2F0E946C020E946802DF9131
S1131460CF9108950E94560280E00E94F609682FE9
S11314706F7780E00E941E0A08959DEC699F912D6C
S1131480112496959695969540E1949F9001112488
S1131490990F392F330F330F930F691B622B0E945F
S11314A01E0A0895AA1BBB1B51E107C0AA1FBB1F3C
S11314B0A617B70710F0A61BB70B881F991F5A95DC
S11314C0A9F780959095BC01CD010895A1E21A2E4B
S11314D0AA1BBB1BFD010DC0AA1FBB1FEE1FFF1FD4
S11314E0A217B307E407F50720F0A21BB30BE40B24
S11314F0F50B661F771F881F991F1A9469F760956B
S11315007095809590959B01AC01BD01CF01089524
S1131510EE0FFF1F0590F491E02D0994A29FB001F6
S1131520B39FC001A39F700D811D1124911DB29F13
S1131530700D811D1124911D0895AEE0B0E0E3EA21
S1131540FAE00C945E0D0D891E8986E08C831A8363
S113155009838FEF9FE79E838D83AE01475E5F4FC4
S11315606F89788DCE0101960E94BF0AEF81F885BC
S1131570E00FF11F10822E96E4E00C947A0DABE09C
S1131580B0E0E5ECFAE00C94500D6C017B018A01AB
S1131590FC0117821682838181FFCCC1CE010196A2
S11315A03C01F6019381F70193FD859193FF8191AD
S11315B07F01882309F4BAC1853239F493FD8591FA
S11315C093FF81917F01853229F4B60190E00E9456
S11315D0B60CE7CF912C212C312CFFE1F315D8F078
S11315E08B3279F038F4803279F08332A1F4232DF0
S11315F020611DC08D3261F0803369F4232D216098
S113160016C0832D8260382EE32DE4603E2E2AC05E
S1131610F32DF8601DC037FC2DC020ED280F2A30B3
S113162040F08E32B9F436FC81C1232D2064322E71
S113163019C036FE06C08AE0989E200D1124922E11
S113164011C0EAE02E9E200D1124222EF32DF0620B
S11316503F2E08C08C3621F4832D8068382E02C0BA
S1131660883641F4F70193FD859193FF81917F01C1
S11316708111B3CF982F9F7D9554933028F40C5F3C
S11316801F4F9FE399830DC0833631F0833771F088
S1131690833509F059C021C0F801808189830E5F28
S11316A01F4F88248394912C530113C02801F2E026
S11316B04F0E511CF801A080B18036FE03C0692D85
S11316C070E002C06FEF7FEFC5010E94AB0C4C01CC
S11316D08201F32DFF773F2E16C0280122E0420E2F
S11316E0511CF801A080B18036FE03C0692D70E062
S11316F002C06FEF7FEFC5010E94A00C4C01F32DD7
S1131700F0683F2E820133FC1BC0822D90E08816C6
S11317109906B0F4B60180E290E00E94B60C2A94D7
S1131720F4CFF50137FC859137FE81915F01B60155
S113173090E00E94B60C21102A9421E0821A9108AC
S11317408114910471F7E8C0843611F0893641F5AB
S1131750F80137FE07C060817181828193810C5F3B
S11317601F4F08C060817181072E000C880B990BF4
S11317700E5F1F4FF32DFF763F2E97FF09C0909504
S11317808095709561957F4F8F4F9F4FF0683F2EE6
S11317902AE030E0A3010E94F20C882E861845C08E
S11317A0853731F4232D2F7EB22E2AE030E025C078
S11317B0932D997FB92E8F36C1F018F4883579F0BE
S11317C0B5C0803719F0883721F0B0C0E92FE06147
S11317D0BE2EB4FE0DC0FB2DF460BF2E09C034FE36
S11317E00AC0292F2660B22E06C028E030E005C0CA
S11317F020E130E002C020E132E0F801B7FE07C08A
S113180060817181828193810C5F1F4F06C060816A
S1131810718180E090E00E5F1F4FA3010E94F20CE3
S1131820882E8618FB2DFF773F2E36FE0DC0232D04
S11318302E7FA22E891458F434FE0BC032FC09C04A
S1131840832D8E7EA82E05C0B82CA32C03C0B82CE3
S113185001C0B92CA4FE0FC0FE01E80DF11D80816A
S1131860803321F49A2D997EA92E09C0A2FE06C0C8
S1131870B394B39404C08A2D867809F0B394A3FC7E
S113188011C0A0FE06C0B21488F4280C922C9B1838
S11318900EC0B21460F4B60180E290E00E94B60C6F
S11318A0B394F7CFB21418F42B1802C0982C212C3F
S11318B0A4FE10C0B60180E390E00E94B60CA2FE24
S11318C017C0A1FC03C088E790E002C088E590E05F
S11318D0B6010CC08A2D867859F0A1FE02C08BE2B5
S11318E001C080E2A7FC8DE2B60190E00E94B60C34
S11318F0891438F4B60180E390E00E94B60C9A94FF
S1131900F7CF8A94F301E80DF11D8081B60190E0D0
S11319100E94B60C8110F5CF222009F442CEB60104
S113192080E290E00E94B60C2A94F6CFF6018681FC
S1131930978102C08FEF9FEF2B96E2E10C946C0D20
S1131940FC010590615070400110D8F78095909586
S11319508E0F9F1F0895FC0161507040019001108B
S1131960D8F7809590958E0F9F1F08950F931F931E
S1131970CF93DF93FB01238121FD03C08FEF9FEF02
S11319802CC022FF16C0468157812481358142171D
S1131990530744F4A081B1819D012F5F3F4F3183F0
S11319A020838C93268137812F5F3F4F3783268393
S11319B014C08B01EC01FB010084F185E02D099535
S11319C0892BE1F6D80116968D919C911797019673
S11319D017969C938E931697CE01DF91CF911F910A
S11319E00F910895FA01AA27283051F1203181F18D
S11319F0E8946F936E7F6E5F7F4F8F4F9F4FAF4F13
S1131A00B1E03ED0B4E03CD0670F781F891F9A1F25
S1131A10A11D680F791F8A1F911DA11D6A0F711DD9
S1131A20811D911DA11D20D009F468943F912AE0E5
S1131A30269F11243019305D3193DEF6CF010895CD
S1131A40462F4770405D4193B3E00FD0C9F7F6CFFE
S1131A50462F4F70405D4A3318F0495D31FD4052C6
S1131A60419302D0A9F7EACFB4E0A695979587955C
S1131A7077956795BA95C9F700976105710508953B
S1131A809B01AC010A2E06945795479537952795E7
S1131A90BA95C9F7620F731F841F951FA01D08957F
S1131AA02F923F924F925F926F927F928F929F926A
S1131AB0AF92BF92CF92DF92EF92FF920F931F9358
S1131AC0CF93DF93CDB7DEB7CA1BDB0B0FB6F89409
S1131AD0DEBF0FBECDBF09942A88398848885F8449
S1131AE06E847D848C849B84AA84B984C884DF80BA
S1131AF0EE80FD800C811B81AA81B981CE0FD11D9E
S1131B000FB6F894DEBF0FBECDBFED010895F89473
S1051B10FFCF01
S1131B1278000402090515050902000008041404EA
S1131B2208000000000010000000416C6C652044B5
S1131B326174656E73E4747A652077657264656EA8
S1131B422067656CF673636874205B6A2F6E5D3A76
S1131B5220000A53616D706C652D5A6569742069A1
S1131B626E20735B00363073203C3D2053616D70F0
S1131B72656C74696D65203C3D20363535333573AB
S1131B82202121210A00454550524F4D2023312066
S1131B927465737400215370656963686572666560
S1131BA2686C657221000A48696C66653A0A0074B9
S1131BB23A20446174756D20756E64205A656974A7
S1131BC22065696E7374656C6C656E0A00663A20F2
S1131BD254656D7065726174757220666F72746C8F
S1131BE2617566656E6420617573676562656E0A08
S1131BF22020205B6D3A20556D736368616C7465B7
S1131C026E2064657320416E7A656967652D4D6F38
S1131C126475735D0A00703A20416C6C65204461FE
S1131C2274656E73E4747A6520647275636B656EB1
S1131C320A006E3A204175667A656963686E756E4C
S1131C4267206E65757374617274656E0A00733A07
S1131C522053616D706C652D5A6569742065696ED7
S1131C627374656C6C656E205B64656661756C7417
S1131C7220313230735D0A00653A20454550524F97
S1131C824D205370656963686572746573740A00E4
S1131C9246455320446174656E6C6F6767657200D4
S1131CA2434F4D3A20393630304264002020200020
S1131CB2556872207374656C6C656E205B6A2F6E56
S1131CC25D203F3A20000A2A2A2A2A2A20416B74DC
S1131CD275656C6C657320446174756D202A2A2ABB
S1131CE22A2A000A54616720202020205B30312EEA
S1131CF22E33315D3A20000A4D6F6E61742020202C
S1131D025B30312E2E31325D3A20000A4A6168720C
S1131D12202020205B30302E2E39395D3A20000AF3
S1131D22416B7475656C6C65205568727A6569746B
S1131D323A000A5374756E646520205B30312E2E8E
S1131D4232345D3A20000A4D696E7574656E205B0B
S1131D5230302E2E35395D3A20002533642C25315E
S1131D62750A002533642C253175B0430054313D86
S1131D722533642E2531750D0A002533642E253151
S1131D82750D002533642E253175B0430D002041B5
S10F1D92413A006F002035353A0078001B
S9030000FC
