:100000000C9434000C94C2000C94FB000C9451002E
:100010000C9451000C9451000C9451000C9451001C
:100020000C9451000C9451000C9451000C9451000C
:100030000C9451000C9451000C9427010C94510025
:100040000C9451000C9451000C945A010C945100E2
:100050000C9451000C9451000C9451000C945100DC
:100060000C9451000C94510011241FBECFEFD8E026
:10007000DEBFCDBF11E0A0E0B1E0ECE7F8E002C0E8
:1000800005900D92A231B107D9F721E0A2E1B1E0CC
:1000900001C01D92AC31B207E1F70E94F1030C944C
:1000A0003C040C940000E9EBF0E080818C7F8083BD
:1000B00080EC8093B800089584EA8093BC00ECEB58
:1000C000F0E080818823ECF7089584E98093BC00F8
:1000D00008958093BB0084E88093BC00ECEBF0E0D3
:1000E00080818823ECF78091B900887F883191F076
:1000F0008091B900887F883279F08091B900887F3B
:10010000803261F09091B900987F81E0903339F0AE
:1001100080E0089580E0089580E0089581E00895EA
:10012000009761F020E030E040E951E0FA013197BA
:10013000F1F72F5F3F4F82179307C1F708950F9391
:100140001F93CF93DF93009759F08C01C0E0D0E06C
:100150008AE090E00E94900021960C171D07C1F7DD
:10016000DF91CF911F910F91089590931701809384
:100170001601E9E6F0E080818260808380818E7FD5
:10018000808308951F920F920FB60F9211242F9320
:100190003F934F935F936F937F938F939F93AF930F
:1001A000BF93EF93FF93E898E0911601F091170148
:1001B0000995E89AFF91EF91BF91AF919F918F912F
:1001C0007F916F915F914F913F912F910F900FBE53
:1001D0000F901F901895E89A7894089590931B01BA
:1001E00080931A01E9E6F0E0808188608083808155
:1001F0008B7F808308951F920F920FB60F92112468
:100200002F933F934F935F936F937F938F939F931E
:10021000AF93BF93EF93FF93E998E0911A01F091A8
:100220001B010995E99AFF91EF91BF91AF919F91C1
:100230008F917F916F915F914F913F912F910F908F
:100240000FBE0F901F901895E99A789408951F9209
:100250000F920FB60F9211242F933F934F935F93FA
:100260006F937F938F939F93AF93BF93CF93DF93BE
:10027000EF93FF93CEE6D0E088818D7F8883E09175
:100280001401F09115010995888182608883FF919E
:10029000EF91DF91CF91BF91AF919F918F917F911E
:1002A0006F915F914F913F912F910F900FBE0F90E3
:1002B0001F9018951F920F920FB60F9211242F9333
:1002C0003F934F935F936F937F938F939F93AF93DE
:1002D000BF93EF93FF93E0911801F09119010995F5
:1002E000FF91EF91BF91AF919F918F917F916F910E
:1002F0005F914F913F912F910F900FBE0F901F90E4
:100300001895413051F58B32910559F42AB181E0AD
:1003100090E002C0880F991F6A95E2F7822B8AB994
:1003200008958532910559F424B181E090E002C02E
:10033000880F991F6A95E2F7822B84B908958897F0
:1003400009F047C027B181E090E002C0880F991FF3
:100350006A95E2F7822B87B908958B32910569F48B
:100360005AB121E030E0062E02C0220F331F0A945A
:10037000E2F7209525232AB91FC08532910569F43B
:1003800054B121E030E0062E02C0220F331F0A9440
:10039000E2F72095252324B90FC08832910561F436
:1003A00057B121E030E0062E02C0220F331F0A941D
:1003B000E2F72095252327B941110BC0FC014081AC
:1003C00021E030E002C0220F331F6A95E2F7242BB0
:1003D000208308958B32910549F489B190E002C0E1
:1003E000959587956A95E2F7817008958532910514
:1003F00049F483B190E002C0959587956A95E2F73C
:1004000081700895889749F486B190E002C095956F
:1004100087956A95E2F78170089580E008958AE0F3
:1004200090E00E9490000895CF93C82F0E945C0036
:100430008EE40E9469008C2F0E9469000E94650072
:10044000CF910895CF93C82F84600E9414028C2FFF
:100450008B7F0E941402CF910895CF93C82F0E94E2
:100460000F028C2F807F0E9422028C2F8295807F2A
:100470000E942202CF910895CF93C82F0E940F02AD
:100480008C2F807F81600E9422028C2F8295807F3A
:1004900081600E942202CF9108958CE390E00E9437
:1004A0009F000E94530080E30E94220284E190E0BA
:1004B0000E949F0080E30E9422028AE090E00E9456
:1004C0009F0080E30E9422028AE090E00E949F0049
:1004D00080E20E94220288E20E942D028CE00E94AB
:1004E0002D0284E10E942D02089581E00E942D02D8
:1004F0000895833031F0843031F0823031F490E46B
:1005000005C090E103C090E501C090E08FEF860F39
:10051000890F80680E942D0208958C3519F0803B68
:1005200019F0089584EA08958FED08950E948D02D0
:100530000E943C020895CF93DF93EC0188818823C9
:1005400031F021960E94960289918111FBCFDF91B3
:10055000CF9108950F931F93CF93DF9300D000D0D6
:100560001F92CDB7DEB7FC0180E041E0480F01E00B
:1005700010E00C0F1D1F080F111D9F01ADECBCEC0E
:100580000E942D04969587959695879596958795C3
:100590009C01220F331F880F991F880F991F880F06
:1005A000991F820F931F9F01281B390BC901805D82
:1005B000D8018C939F01ADECBCEC0E942D04FC0192
:1005C000F695E795F695E795F695E795842F30979C
:1005D00061F6453070F480E211E0140FE1E0F0E0E4
:1005E000EC0FFD1FE40FF11D8083412F1530A1F7A3
:1005F00003C0442369F0142F1150E1E0F0E0EC0F48
:10060000FD1FE10FF11D80810E9496021111F4CFB0
:100610000F900F900F900F900F90DF91CF911F913F
:100620000F91089562E08BE290E00E94EA0181114F
:1006300029C063E08BE290E00E94EA01813089F4F6
:100640008091120190911301892B09F442C080918D
:10065000120190911301019790931301809312015D
:1006600008958091120190911301803D974088F583
:100670008091120190911301019690931301809340
:100680001201089563E08BE290E00E94EA0181117B
:1006900010C08091120190911301892BD1F08091AB
:1006A000120190911301019790931301809312010D
:1006B00008958091120190911301803D974048F474
:1006C00080911201909113010196909313018093F0
:1006D0001201089563E08BE290E00E94EA0181112B
:1006E00029C062E08BE290E00E94EA01811111C012
:1006F0008091120190911301892B09F442C08091DD
:1007000012019091130101979093130180931201AC
:1007100008958091120190911301803D974088F5D2
:10072000809112019091130101969093130180938F
:100730001201089562E08BE290E00E94EA018130AC
:1007400081F48091120190911301892BD1F0809155
:10075000120190911301019790931301809312015C
:1007600008958091120190911301803D974048F4C3
:10077000809112019091130101969093130180933F
:100780001201089540E063E08BE290E00E94810155
:1007900040E062E08BE290E00E94810140E062E094
:1007A00085E290E00E9481010E944D020E94750244
:1007B00061E081E00E94790280E091E00E949B026A
:1007C00061E082E00E94790289E091E00E949B0250
:1007D00082E193E00E94B5008AE693E00E94EE0079
:1007E0000895CF93DF9300D0CDB7DEB70E94C20348
:1007F0000E94EB000E94240169E081E00E947902DE
:1008000080911201909113010E94AA02209112017D
:1008100030911301ABEABAEA0E942D040024880F3C
:10082000991F001C880F991F001C892F902D9A83F7
:10083000898369E082E00E94790289819A810E941D
:10084000AA0262E085E290E00E94EA018111D4CF21
:100850001092130110921201CFCFA29FB001B39F4B
:10086000C001A39F700D811D1124911DB29F700DB9
:0C087000811D1124911D0895F894FFCF04
:10087C00636F756E7473203D007475726E732020F7
:02088C003D002D
:00000001FF
