S0230000345F325F496E6B72656D656E74616C65725F4472656867656265722E73726563A5
S11300000C9434000C94DD010C9416020C945100F1
S11300100C9451000C9451000C9451000C94510018
S11300200C9451000C9451000C9451000C94510008
S11300300C9451000C9451000C9442020C94510005
S11300400C9451000C9451000C9475020C945100C2
S11300500C9451000C9451000C9451000C945100D8
S11300600C9451000C94510011241FBECFEFD8E022
S1130070DEBFCDBF11E0A0E0B1E0EEECF8E002C0DD
S113008005900D92A231B107D9F721E0A2E1B1E0C8
S113009001C01D92AC31B207E1F70E9432010C9409
S11300A065040C94000062E08BE290E00E9405037A
S11300B0811129C063E08BE290E00E940503813046
S11300C089F48091120190911301892B09F442C0A3
S11300D080911201909113010197909313018093E1
S11300E0120108958091120190911301803D97406F
S11300F088F5809112019091130101969093130158
S113010080931201089563E08BE290E00E9405035E
S1130110811110C08091120190911301892BD1F0AB
S11301208091120190911301019790931301809390
S1130130120108958091120190911301803D97401E
S113014048F4809112019091130101969093130148
S113015080931201089563E08BE290E00E9405030E
S1130160811129C062E08BE290E00E9405038111B5
S113017011C08091120190911301892B09F442C09E
S11301808091120190911301019790931301809330
S1130190120108958091120190911301803D9740BE
S11301A088F58091120190911301019690931301A7
S11301B080931201089562E08BE290E00E940503AF
S11301C0813081F48091120190911301892BD1F037
S11301D080911201909113010197909313018093E0
S11301E0120108958091120190911301803D97406E
S11301F048F4809112019091130101969093130198
S113020080931201089540E063E08BE290E00E9445
S11302109C0240E062E08BE290E00E949C0240E09D
S113022065E282E090E00E949C020E9469030E94C1
S1130230910361E081E00E94950380E091E00E94D7
S1130240DF0361E082E00E94950389E091E00E946F
S1130250DF0383E590E00E94D0018BEA90E00E94E6
S113026009020895CF93DF9300D0CDB7DEB70E9483
S113027003010E9406020E943F0269E081E00E949D
S1130280950380911201909113010E94EE03209135
S1130290120130911301ABEABAEA0E945604002419
S11302A0880F991F001C880F991F001C892F902DFF
S11302B09A83898369E082E00E94950389819A8107
S11302C00E94EE0362E085E290E00E940503811142
S11302D0D4CF1092130110921201CFCFE9EBF0E0CA
S11302E080818C7F808380EC8093B800089584EAB9
S11302F08093BC00ECEBF0E080818823ECF7089558
S113030084E98093BC0008958093BB0084E88093C3
S1130310BC00ECEBF0E080818823ECF78091B9001D
S1130320887F883191F08091B900887F883279F094
S11303308091B900887F803261F09091B900987FF4
S113034081E0903339F080E0089580E0089580E002
S1130350089581E00895009761F020E030E040E9DD
S113036051E0FA013197F1F72F5F3F4F821793075E
S1130370C1F708950F931F93CF93DF93009759F01C
S11303808C01C0E0D0E08AE090E00E94AB012196AD
S11303900C171D07C1F7DF91CF911F910F9108959D
S11303A09093170180931601E9E6F0E080818D7F38
S11303B0808380818160808308951F920F920FB69D
S11303C00F9211242F933F934F935F936F937F93D7
S11303D08F939F93AF93BF93EF93FF93E898E0912C
S11303E01601F09117010995E89AFF91EF91BF91D9
S11303F0AF919F918F917F916F915F914F913F91B9
S11304002F910F900FBE0F901F901895E89A789433
S1130410089590931B0180931A01E9E6F0E080812E
S1130420877F808380818460808308951F920F92E8
S11304300FB60F9211242F933F934F935F936F93B3
S11304407F938F939F93AF93BF93EF93FF93E99819
S1130450E0911A01F0911B010995E99AFF91EF913E
S1130460BF91AF919F918F917F916F915F914F91C8
S11304703F912F910F900FBE0F901F901895E99AFE
S1130480789408951F920F920FB60F9211242F9310
S11304903F934F935F936F937F938F939F93AF9308
S11304A0BF93CF93DF93EF93FF93CEE6D0E08881A1
S11304B08D7F8883E0911401F0911501099588815D
S11304C082608883FF91EF91DF91CF91BF91AF91CB
S11304D09F918F917F916F915F914F913F912F9158
S11304E00F900FBE0F901F9018951F920F920FB68A
S11304F00F9211242F933F934F935F936F937F93A6
S11305008F939F93AF93BF93EF93FF93E091180161
S1130510F09119010995FF91EF91BF91AF919F91CE
S11305208F917F916F915F914F913F912F910F9098
S11305300FBE0F901F901895413051F58B329105E5
S113054059F42AB181E090E002C0880F991F6A959E
S1130550E2F7822B8AB908958532910559F424B1C2
S113056081E090E002C0880F991F6A95E2F7822B20
S113057084B90895889709F047C027B181E090E0D5
S113058002C0880F991F6A95E2F7822B87B90895F4
S11305908B32910569F45AB121E030E0062E02C095
S11305A0220F331F0A94E2F7209525232AB91FC08E
S11305B08532910569F454B121E030E0062E02C081
S11305C0220F331F0A94E2F72095252324B90FC084
S11305D08832910561F457B121E030E0062E02C063
S11305E0220F331F0A94E2F72095252327B94111DE
S11305F00BC0FC01408121E030E002C0220F331F18
S11306006A95E2F7242B208308958B32910549F4EF
S113061089B190E002C0959587956A95E2F781705B
S113062008958532910549F483B190E002C095950F
S113063087956A95E2F781700895889749F486B1A1
S113064090E002C0959587956A95E2F781700895C8
S113065080E008958AE090E00E94AB010895CF9372
S1130660C82F0E9477018EE40E9484018C2F0E947F
S113067084010E948001CF910895CF93C82F8C608C
S11306800E942F038C2F8B7F88600E942F03CF91B1
S11306900895CF93C82F0E942A038C2F807F0E9435
S11306A03D038C2F8295807F0E943D03CF91089556
S11306B0CF93C82F0E942A038C2F807F81600E94D1
S11306C03D038C2F8295807F81600E943D03CF91F2
S11306D008958CE390E00E94BA010E946E0180E3C9
S11306E00E943D0384E190E00E94BA0180E30E94ED
S11306F03D038AE090E00E94BA0180E30E943D033A
S11307008AE090E00E94BA0180E20E943D0388E200
S11307100E9449038CE00E94490384E10E9449033A
S1130720089581E00E9449030895833031F08430B4
S113073031F0823031F490E405C090E103C090E5DB
S113074001C090E08FEF860F890F80680E944903F3
S11307500895863D09F168F4803B51F128F48C3505
S113076019F1803819F10895853BE1F0843C71F06A
S11307700895843E59F028F48C3D81F08F3D81F03A
S11307800895863F29F08C3F29F0089581EE08955D
S11307908FEE089585EF08958FEE089585EF0895FF
S11307A082EE089584EE089584EA089583ED089511
S11307B08FED08950E94A9030E9458030895CF93D2
S11307C0DF93EC018881882331F021960E94DA03BB
S11307D089918111FBCFDF91CF9108950F931F93DE
S11307E0CF93DF9300D000D01F92CDB7DEB7FC01CA
S11307F080E041E0480F01E010E00C0F1D1F080FDE
S1130800111D9F01ADECBCEC0E9456049695879592
S113081096958795969587959C01220F331F880F8F
S1130820991F880F991F880F991F820F931F9F018B
S1130830281B390BC901805DD8018C939F01ADEC55
S1130840BCEC0E945604FC01F695E795F695E795F5
S1130850F695E795842F309761F6453070F480E281
S113086011E0140FE1E0F0E0EC0FFD1FE40FF11DC7
S11308708083412F1530A1F703C0442369F0142F5E
S11308801150E1E0F0E0EC0FFD1FE10FF11D80815C
S11308900E94DA031111F4CF0F900F900F900F9074
S11308A00F90DF91CF911F910F910895A29FB001F6
S11308B0B39FC001A39F700D811D1124911DB29F90
S11108C0700D811D1124911D0895F894FFCF31
S11308CE636F756E7473203D007475726E732020A1
S10508DE3D00D7
S9030000FC
