S010000050574D5F746573742E7372656301
S11300000C9434000C9449000C9449000C9449005D
S11300100C9449000C9449000C9449000C94490038
S11300200C9449000C9449000C9449000C94490028
S11300300C9449000C9449000C9449000C94490018
S11300400C9449000C9449000C9449000C94490008
S11300500C9449000C9449000C9449000C944900F8
S11300600C9449000C94490011241FBECFEFD8E032
S1130070DEBFCDBF11E0A0E0B1E0EAE4F5E002C0EC
S113008005900D92A431B107D9F70E9452020C9445
S1130090A3020C940000009769F020E030E0EFE840
S11300A0F1E03197F1F700C000002F5F3F4F2817B0
S11300B03907A9F708950F931F93CF93DF93009700
S11300C059F08C01C0E0D0E08AE090E00E944B003F
S11300D02196C017D107C1F7DF91CF911F910F91DE
S11300E00895413051F58B32910559F42AB181E0DC
S11300F090E002C0880F991F6A95E2F7822B8AB9B3
S113010008958532910559F424B181E090E002C04C
S1130110880F991F6A95E2F7822B84B9089588970E
S113012009F047C027B181E090E002C0880F991F11
S11301306A95E2F7822B87B908958B32910569F4A9
S11301405AB121E030E0062E02C0220F331F0A9478
S1130150E2F7209525232AB91FC08532910569F459
S113016054B121E030E0062E02C0220F331F0A945E
S1130170E2F72095252324B90FC08832910561F454
S113018057B121E030E0062E02C0220F331F0A943B
S1130190E2F72095252327B941110BC0FC014081CA
S11301A021E030E002C0220F331F6A95E2F7242BCE
S11301B0208308958B32910549F489B190E002C0FF
S11301C0959587956A95E2F7817008958532910532
S11301D049F483B190E002C0959587956A95E2F75A
S11301E081700895889749F486B190E002C095958E
S11301F087956A95E2F78170089580E00895239ABF
S1130200E1EBF0E0808184608083E0EBF0E08081CA
S1130210836080838FE78093B3000895E0EBF0E080
S11302208081806880830895E0EBF0E080818F779F
S11302308083089580958093B300089580E6809329
S11302407C0085E880937A000895ECE7F0E09081E3
S1130250892B8083EAE7F0E0808180648083808159
S113026086FDFDCF80917900089583E00E942501E9
S1130270089588E090E00E944B0008959BB19F7020
S11302809BB99BB1892B8BB9289A28980895CF9351
S1130290C82F0E94390129988C2F807F0E943E012B
S11302A08C2F8295807F0E943E01CF910895CF9339
S11302B0C82F0E943901299A8C2F807F0E943E0109
S11302C0299A8C2F8295807F0E943E012998CF9194
S11302D008958AB1806F8AB9209A219A80E390E0C8
S11302E00E945B0080E30E943E0180E190E00E9456
S11302F05B0080E30E943E0188E090E00E945B0086
S113030080E30E943E0188E090E00E945B0080E26E
S11303100E943E0188E20E9447018CE00E9447014E
S113032084E10E944701089581E00E9447010895F5
S1130330833031F0843031F0823031F490E405C000
S113034090E103C090E501C090E08FEF860F890F24
S113035080680E9447010895863D09F168F4803B56
S113036051F128F48C3519F1803819F10895853B41
S1130370E1F0843C71F00895843E59F028F48C3DFA
S113038081F08F3D81F00895863F29F08C3F29F05C
S1130390089581EE08958FEE089585EF08958FEE08
S11303A0089585EF089582EE089584EE089584EA11
S11303B0089583ED08958FED08950E94AC010E9485
S11303C057010895CF93DF93EC018881882331F09E
S11303D021960E94DD0189918111FBCFDF91CF919C
S11303E008951F93CF93DF9300D01F92CDB7DEB74C
S11303F020E05DEC91E0920FE1E0F0E0EC0FFD1FF6
S1130400E20FF11D859F212D112426952695269511
S1130410422F440F342F330F330F340F831B805D6F
S11304208083822F292F8111E5CF933070F480E2ED
S113043011E0190FE1E0F0E0EC0FFD1FE90FF11DF1
S11304408083912F1330A1F703C0992369F0192FEA
S11304501150E1E0F0E0EC0FFD1FE10FF11D808190
S11304600E94DD011111F4CF0F900F900F90DF91D6
S1130470CF911F9108950E9469010E941E010E945C
S1130480FF0040E060E088E290E00E9471000E947A
S1130490940161E081E00E94980180E091E00E9473
S11304A0E20108950E943B0214E6D4E660E088E28B
S11304B090E00E94DA00813059F40E940E0161E05C
S11304C082E00E94980189E091E00E94E2010AC062
S11304D00E94140161E082E00E9498018EE091E0A4
S11304E00E94E2010E943501C82F0E941A0165E0B2
S11304F082E00E9498011C9F90011124A1E8B0E8B9
S11305000E949402880F892F881F990B91952D2F93
S1130510281B822F0E94F10185E20E94DD0184EFF5
S113052091E00E945B00C2CFA29FB001B39FC001C3
S1130530A39F700D811D1124911DB29F700D811D0B
S10D05401124911D0895F894FFCFD3
S113054A50574D205465737400206F6E2000206F3D
S107055A66660000CD
S9030000FC
