:1000000033C00000AEC00000D5C0000048C00000F2
:1000100046C0000044C0000042C0000040C00000D4
:100020003EC000003CC000003AC0000038C00000E4
:1000300036C0000034C00000E6C0000030C0000040
:100040002EC000002CC00000C1C1000028C000006C
:1000500026C0000024C0000022C0000020C0000014
:100060001EC000001CC0000011241FBECFEFD8E04E
:10007000DEBFCDBF11E0A0E0B1E0E8E9FEE002C0E4
:1000800005900D92A032B107D9F721E0A0E2B1E0CE
:1000900001C01D92A734B207E1F77CD4FBC6B0CFF4
:1000A000E9EBF0E080818C7F808380EC8093B80066
:1000B000089584EA8093BC00ECEBF0E08081882313
:1000C000ECF7089584E98093BC0008958093BB0009
:1000D00084E88093BC00ECEBF0E080818823ECF7AF
:1000E0008091B900887F883191F08091B900887F34
:1000F000883279F08091B900887F803261F09091E8
:10010000B900987F81E0903339F080E0089580E075
:10011000089580E0089581E00895009761F020E05F
:1001200030E040E951E0FA013197F1F72F5F3F4F9E
:1001300082179307C1F708950F931F93CF93DF930F
:10014000009751F08C01C0E0D0E08AE090E0E5DF5C
:1001500021960C171D07C9F7DF91CF911F910F91C1
:1001600008951F920F920FB60F9211242F933F9371
:100170004F935F936F937F938F939F93AF93BF93AF
:10018000EF93FF93E898E0912501F09126010995FE
:10019000E89AFF91EF91BF91AF919F918F917F91DD
:1001A0006F915F914F913F912F910F900FBE0F90E4
:1001B0001F9018951F920F920FB60F9211242F9334
:1001C0003F934F935F936F937F938F939F93AF93DF
:1001D000BF93EF93FF93E998E0912901F0912A01F1
:1001E0000995E99AFF91EF91BF91AF919F918F91FE
:1001F0007F916F915F914F913F912F910F900FBE23
:100200000F901F9018951F920F920FB60F92112406
:100210002F933F934F935F936F937F938F939F930E
:10022000AF93BF93CF93DF93EF93FF93CEE6D0E0EE
:1002300088818D7F8883E0912301F09124010995C5
:10024000888182608883FF91EF91DF91CF91BF9188
:10025000AF919F918F917F916F915F914F913F915E
:100260002F910F900FBE0F901F901895CF92DF9295
:10027000EF92FF926B017C0120E53EE842E85CE3EF
:1002800059D488233CF481E090E09093210180933D
:10029000200136C02CE53FE842E05EE3C701B6012D
:1002A00049D488233CF488E090E090932101809326
:1002B000200126C02CE53FE842E85FE3C701B60114
:1002C00039D488233CF480E490E09093210180931A
:1002D000200116C02CE53FE842E850E4C701B60112
:1002E00029D488233CF480E091E09093210180930D
:1002F000200106C080E094E09093210180932001CA
:10030000609120017091210180E89EE358D580E042
:1003100090E040D4A7019601EFD420E030E040E81F
:100320005FE3A3D30BD4862FFF90EF90DF90CF90A5
:100330000895909324018093230184B5826084BD45
:10034000CB01BA0193DF87BD089540E050E060E83B
:100350007FE3EFCF089580912001909121018034B7
:100360009105B9F030F48130910559F0089769F0A2
:100370001BC0811521E0920781F08115944089F01E
:1003800013C085B5816085BD0FC085B5826085BD10
:100390000BC085B5836085BD07C085B5846085BD0C
:1003A00003C085B5856085BDEEE6F0E080818260A2
:1003B000808378940895CFCF089515BCEEE6F0E0E1
:1003C00080818D7F80830895F8CF08951F920F92CA
:1003D0000FB60F9211242F933F934F935F936F9318
:1003E0007F938F939F93AF93BF93EF93FF93E0918E
:1003F0002701F09128010995FF91EF91BF91AF91ED
:100400009F918F917F916F915F914F913F912F912C
:100410000F900FBE0F901F901895413051F58B3201
:10042000910559F42AB181E090E002C0880F991F2C
:100430006A95E2F7822B8AB908958532910559F4BD
:1004400024B181E090E002C0880F991F6A95E2F71D
:10045000822B84B90895889709F047C027B181E0BD
:1004600090E002C0880F991F6A95E2F7822B87B946
:1004700008958B32910569F45AB121E030E0062EDF
:1004800002C0220F331F0A94E2F7209525232AB9D0
:100490001FC08532910569F454B121E030E0062E89
:1004A00002C0220F331F0A94E2F72095252324B9B6
:1004B0000FC08832910561F457B121E030E0062E7B
:1004C00002C0220F331F0A94E2F72095252327B993
:1004D00041110BC0FC01408121E030E002C0220F3D
:1004E000331F6A95E2F7242B208308958B32910500
:1004F00049F489B190E002C0959587956A95E2F735
:10050000817008958532910549F483B190E002C06D
:10051000959587956A95E2F781700895889749F4D3
:1005200086B190E002C0959587956A95E2F7817053
:10053000089580E00895EF92FF921F93CF93DF9389
:10054000EC01162F7A01D2DF811112C084E190E014
:10055000F3DD612FCE01CADF8823D9F384E190E077
:10056000EBDDF701808180958083808181708083BD
:10057000DF91CF911F91FF90EF900895239AE1EBC7
:10058000F0E0808184608083E0EBF0E08081836034
:1005900080838FE78093B3000895E0EBF0E08081E3
:1005A000806880830895E0EBF0E080818F7780831E
:1005B00008958093B300089580E680937C0085E8D9
:1005C00080937A000895ECE7F0E09081907F90832B
:1005D0009081892B8083EAE7F0E0808180648083CA
:1005E000808186FDFDCF80917900089583E0EBCF77
:1005F000089580E0E8CF08958AE090E08ECD0895D8
:10060000CF93C82F56DD8EE461DD8C2F5FDD5ADD80
:10061000CF910895CF93C82F8460F2DF8C2F8B7F0A
:10062000EFDFCF910895CF93C82FE6DF8C2F807F27
:10063000F1DF8C2F8295807FEDDFCF910895CF93EE
:10064000C82FDADF8C2F807F8160E4DF8C2F8295CA
:10065000807F8160DFDFCF9108958CE390E06CDDD7
:100660001FDD80E3D7DF84E190E066DD80E3D2DF49
:100670008AE090E061DD80E3CDDF8AE090E05CDD40
:1006800080E2C8DF88E2CFDF8CE0CDDF84E1CBCF32
:10069000089581E0C8CF0895833031F0843031F07F
:1006A000823031F490E405C090E103C090E501C0D0
:1006B00090E08FEF860F890F8068B5CF08958C3555
:1006C00019F0803B19F0089584EA08958FED08959C
:1006D000F6DFB5CF0895CF93DF93EC0188818823AF
:1006E00029F02196F5DF89918111FCCFDF91CF911F
:1006F00008951F93CF93DF9300D01F92CDB7DEB73D
:1007000020E05DEC91E0920FE1E0F0E0EC0FFD1FE6
:10071000E20FF11D859F212D112426952695269502
:10072000422F440F342F330F330F340F831B805D60
:100730008083822F292F8111E5CF933070F480E2DE
:1007400011E0190FE1E0F0E0EC0FFD1FE90FF11DE2
:100750008083912F1330A1F703C0992361F0192FE3
:100760001150E1E0F0E0EC0FFD1FE10FF11D808181
:10077000AFDF1111F5CF0F900F900F90DF91CF9158
:100780001F9108950F931F9380913301909134012D
:10079000A0913501B091360140912B0150912C016F
:1007A00060912D0170912E01841B950BA60BB70B48
:1007B0008093430190934401A0934501B093460177
:1007C0008091430190914401A0914501B09146016F
:1007D000880F991FAA1FBB1F880F991FAA1FBB1F35
:1007E000AC01BD01440F551F661F771F440F551FF5
:1007F000661F771F840F951FA61FB71F80933701B1
:1008000090933801A0933901B0933A01409143018C
:1008100050914401609145017091460180913F01E2
:1008200090914001A0914101B0914201840F951F28
:10083000A61FB71F80933F0190934001A0934101F1
:10084000B093420180913F0190914001A0914101FC
:10085000B0914201880F991FAA1FBB1F880F991FD3
:10086000AA1FBB1FAC01BD01440F551F661F771F98
:10087000440F551F661F771F8C019D01040F151F24
:10088000261F371FC901B80124E135E040E050E0E0
:10089000AAD220932F01309330014093310150931D
:1008A00032014091370150913801609139017091C6
:1008B0003A0180912F0190913001A0913101B091C6
:1008C0003201840F951FA61FB71F80933B019093A1
:1008D0003C01A0933D01B0933E0160913B017091BA
:1008E0003C0180913D0190913E0124E630E040E0E2
:1008F00050E079D220933B0130933C0140933D017D
:1009000050933E0180913B0190913C01A0913D01AB
:10091000B0913E018F3F9105A105B10569F064F0EA
:100920008FEF90E0A0E0B0E080933B0190933C011A
:10093000A0933D01B0933E0180913B0190913C0119
:10094000A0913D01B0913E01BB2344F410923B01C4
:1009500010923C0110923D0110923E011F910F91A7
:1009600008957BDE29DE0ADE40E065E085E290E066
:1009700054DD82EC93E0E9DC8CDE61E081E08CDE2A
:1009800080E091E0A8DE61E082E086DE8FE091E029
:10099000A2CE0895E6DFC12CD12C7601CA9442E2A2
:1009A00051E065E085E290E0C6DD66E081E074DE5E
:1009B00080912201882319F0FEDCEFDD0AC004DDFE
:1009C000F2DD10923F01109240011092410110920D
:1009D00042010CDE90E0A0E0B0E080933301909300
:1009E0003401A0933501B093360103DE90E0A0E01E
:1009F000B0E080932B0190932C01A0932D01B09334
:100A00002E0180913B0190913C01A0913D01B0915C
:100A10003E01CFDD66E081E03FDE20913301309181
:100A200034014091350150913601A4E6B0E006D280
:100A3000A7019601D8D1822F5CDE85E249DE66E00F
:100A400082E02ADE20912B0130912C0140912D0172
:100A500050912E01A4E6B0E0F1D1A7019601C3D1D7
:100A6000822F47DE85E234DE9ACF5058BB27AA2773
:100A70000ED008C1F9D030F0FED020F031F49F3F05
:100A800011F41EF4EEC00EF4E095E7FBE4C0E92F8C
:100A90000AD180F3BA17620773078407950718F025
:100AA00071F49EF522C10EF4E0950B2EBA2FA02D05
:100AB0000B01B90190010C01CA01A0011124FF270B
:100AC000591B99F0593F50F4503E68F11A16F04006
:100AD000A22F232F342F4427585FF3CF4695379505
:100AE0002795A795F0405395C9F77EF41F16BA0BCA
:100AF000620B730B840BBAF09150A1F0FF0FBB1F78
:100B0000661F771F881FC2F70EC0BA0F621F731FC0
:100B1000841F48F4879577956795B795F7959E3F1D
:100B200008F0B3CF9395880F08F09927EE0F9795AB
:100B3000879508956CD008F481E00895BCD088F0C2
:100B40009F5790F0B92F9927B751A0F0D1F0660FB9
:100B5000771F881F991F1AF0BA95C9F712C0B130D4
:100B600081F0C3D0B1E00895C0C0672F782F8827E7
:100B7000B85F39F0B93FCCF3869577956795B39513
:100B8000D9F73EF490958095709561957F4F8F4F82
:100B90009F4F0895E89409C097FB3EF49095809587
:100BA000709561957F4F8F4F9F4F9923A9F0F92F33
:100BB00096E9BB279395F695879577956795B795B1
:100BC000F111F8CFFAF4BB0F11F460FF1BC06F5F97
:100BD0007F4F8F4F9F4F16C0882311F096E911C0A9
:100BE000772321F09EE8872F762F05C0662371F0CA
:100BF00096E8862F70E060E02AF09A95660F771FDE
:100C0000881FDAF7880F9695879597F90895990FB9
:100C10000008550FAA0BE0E8FEEF16161706E807C6
:100C2000F907C0F012161306E407F50798F0621BE7
:100C3000730B840B950B39F40A2661F0232B242BBC
:100C4000252B21F408950A2609F4A140A6958FEFDB
:100C5000811D811D089597F99F6780E870E060E02D
:100C600008959FEF80EC089500240A941616170645
:100C700018060906089500240A941216130614068D
:100C800005060895092E0394000C11F4882352F0F0
:100C9000BB0F40F4BF2B11F460FF04C06F5F7F4FA8
:100CA0008F4F9F4F089557FD9058440F551F59F08F
:100CB0005F3F71F04795880F97FB991F61F09F3F49
:100CC00079F087950895121613061406551FF2CF72
:100CD0004695F1DF08C0161617061806991FF1CFC2
:100CE00086957105610508940895E894BB276627E9
:100CF0007727CB0197F908950BD0C4CFB5DF28F043
:100D0000BADF18F0952309F0A6CFABCF1124EECFB0
:100D1000CADFA0F3959FD1F3950F50E0551F629F56
:100D2000F001729FBB27F00DB11D639FAA27F00D44
:100D3000B11DAA1F649F6627B00DA11D661F829F6B
:100D40002227B00DA11D621F739FB00DA11D621F50
:100D5000839FA00D611D221F749F3327A00D611D6D
:100D6000231F849F600D211D822F762F6A2F11244F
:100D70009F5750408AF0E1F088234AF0EE0FFF1FA2
:100D8000BB1F661F771F881F91505040A9F79E3FD9
:100D9000510570F060CFAACF5F3FECF3983EDCF3D3
:100DA000869577956795B795F795E7959F5FC1F716
:100DB000FE2B880F911D9695879597F90895AA1B8C
:100DC000BB1B51E107C0AA1FBB1FA617B70710F036
:100DD000A61BB70B881F991F5A95A9F78095909568
:100DE000BC01CD010895052E97FB16F400940FD099
:100DF00057FD05D02DD007FC02D046F408C0509511
:100E00004095309521953F4F4F4F5F4F08959095F6
:100E10008095709561957F4F8F4F9F4F0895A29F4A
:100E2000B001B39FC001A39F700D811D1124911DBE
:100E3000B29F700D811D1124911D0895F0DFA59FB3
:100E4000900DB49F900DA49F800D911D11240895C5
:100E5000A1E21A2EAA1BBB1BFD010DC0AA1FBB1FBE
:100E6000EE1FFF1FA217B307E407F50720F0A21B30
:100E7000B30BE40BF50B661F771F881F991F1A949D
:100E800069F760957095809590959B01AC01BD01C7
:080E9000CF010895F894FFCF93
:100E9800536F6C6C3A20202020202053343A0049AC
:100EA80073743A202020202020205374617274002B
:00000001FF
