:100000000C9434000C9449000C9449000C94490061
:100010000C9449000C9449000C9449000C9449003C
:100020000C9449000C9449000C9449000C9449002C
:100030000C9449000C9449000C9449000C9449001C
:100040000C9449000C9449000C9449000C9449000C
:100050000C9449000C9449000C9449000C944900FC
:100060000C9449000C94490011241FBECFEFD8E036
:10007000DEBFCDBF11E0A0E0B1E0EAE2F4E002C0F3
:1000800005900D92AC30B107D9F70E94EB000C94AB
:1000900013020C940000E9EBF0E080818C7F8083F8
:1000A00080EC8093B800089584EA8093BC00ECEB68
:1000B000F0E080818823ECF7089584E98093BC0008
:1000C00008958093BB0084E88093BC00ECEBF0E0E3
:1000D00080818823ECF78091B900887F883191F086
:1000E0008091B900887F883279F08091B900887F4B
:1000F000803261F09091B900987F81E0903339F0BF
:1001000080E0089580E0089580E0089581E00895FA
:10011000811104C084EC8093BC0003C084E8809308
:10012000BC00ECEBF0E080818823ECF78091BB0011
:100130000895009769F020E030E0EFE8F1E03197B2
:10014000F1F700C000002F5F3F4F82179307A9F718
:1001500008950F931F93CF93DF93009759F08C016D
:10016000C0E0D0E08AE090E00E94990021960C1750
:100170001D07C1F7DF91CF911F910F9108950E9444
:1001800041010E944B000E946C0161E081E00E94ED
:10019000700180E091E00E94BA010895CF930E941F
:1001A000540080E90E94610080E00E9461000E948A
:1001B0005D000E94540081E90E94610080E00E947D
:1001C0008800C82F81E00E9488000E945D008C2F6B
:1001D00090E0CF910895CF93DF931F92CDB7DEB714
:1001E0000E94BF000E94CE00898362E082E00E94EC
:1001F0007001898188234CF4898180958983898164
:100200008F5F89838DE20E94B50189810E94C901B7
:1002100089E091E00E94BA0184E690E00E94A90082
:10022000E1CF88E090E00E94990008959BB19F7013
:100230009BB99BB1892B8BB9289A28980895CF93A5
:10024000C82F0E94110129988C2F807F0E941601CF
:100250008C2F8295807F0E941601CF910895CF93B5
:10026000C82F0E941101299A8C2F807F0E941601AD
:10027000299A8C2F8295807F0E9416012998CF9110
:1002800008958AB1806F8AB9209A219A80E390E01C
:100290000E94A90080E30E94160180E190E00E9484
:1002A000A90080E30E94160188E090E00E94A90066
:1002B00080E30E94160188E090E00E94A90080E29D
:1002C0000E94160188E20E941F018CE00E941F011B
:1002D00084E10E941F01089581E00E941F0108959A
:1002E000833031F0843031F0823031F490E405C055
:1002F00090E103C090E501C090E08FEF860F890F79
:1003000080680E941F010895863D09F168F4803BD2
:1003100051F128F48C3519F1803819F10895853B95
:10032000E1F0843C71F00895843E59F028F48C3D4E
:1003300081F08F3D81F00895863F29F08C3F29F0B0
:10034000089581EE08958FEE089585EF08958FEE5C
:10035000089585EF089582EE089584EE089584EA65
:10036000089583ED08958FED08950E9484010E9401
:100370002F010895CF93DF93EC018881882331F01A
:1003800021960E94B50189918111FBCFDF91CF9118
:1003900008951F93CF93DF9300D01F92CDB7DEB7A0
:1003A00020E05DEC91E0920FE1E0F0E0EC0FFD1F4A
:1003B000E20FF11D859F212D112426952695269566
:1003C000422F440F342F330F330F340F831B805DC4
:1003D0008083822F292F8111E5CF933070F480E242
:1003E00011E0190FE1E0F0E0EC0FFD1FE90FF11D46
:1003F0008083912F1330A1F703C0992369F0192F3F
:100400001150E1E0F0E0EC0FFD1FE10FF11D8081E4
:100410000E94B5011111F4CF0F900F900F90DF9152
:0A042000CF911F910895F894FFCFCB
:0C042A002A2A4C4D37352A2A00B0430026
:00000001FF
