S012000074696D65725F746573742E73726563D2
S11300000C9434000C9479000C9451000C9451001D
S11300100C9451000C9451000C9451000C94510018
S11300200C9451000C9451000C9451000C94510008
S11300300C9451000C9451000C94A2000C945100A7
S11300400C9451000C9451000C9451000C945100E8
S11300500C9451000C9451000C9451000C945100D8
S11300600C9451000C94510011241FBECFEFD8E022
S1130070DEBFCDBF11E0A0E0B1E0E2E1F9E002C0F3
S113008005900D92A630B107D9F721E0A6E0B1E0C2
S113009001C01D92A131B207E1F70E949A020C94AB
S11300A087040C940000009769F020E030E0EFE84A
S11300B0F1E03197F1F700C000002F5F3F4F2817A0
S11300C03907A9F708950F931F93CF93DF930097F0
S11300D059F08C01C0E0D0E08AE090E00E94530027
S11300E02196C017D107C1F7DF91CF911F910F91CE
S11300F008951F920F920FB60F9211242F933F93DE
S11301004F935F936F937F938F939F93AF93BF931B
S1130110EF93FF93E898E0910F01F0911001099596
S1130120E89AFF91EF91BF91AF919F918F917F9149
S11301306F915F914F913F912F910F900FBE0F9050
S11301401F9018951F920F920FB60F9211242F93A0
S11301503F934F935F936F937F938F939F93AF934B
S1130160BF93CF93DF93EF93FF93CEE6D0E08881E4
S11301708D7F8883E0910D01F0910E0109958881AE
S113018082608883FF91EF91DF91CF91BF91AF910E
S11301909F918F917F916F915F914F913F912F919B
S11301A00F900FBE0F901F901895CF92DF92EF9291
S11301B0FF926B017C0120E53EE842E85CE30E948B
S11301C0200388233CF481E090E09093070180931E
S11301D0060139C02CE53FE842E05EE3C701B60101
S11301E00E94200388233CF488E090E09093070168
S11301F08093060128C02CE53FE842E85FE3C7018D
S1130200B6010E94200388233CF480E490E090939C
S113021007018093060117C02CE53FE842E850E44B
S1130220C701B6010E94200388233CF480E091E0DA
S1130230909307018093060106C080E094E09093B8
S1130240070180930601609106017091070180E81F
S11302509EE30E94730480E090E00E945403A7018F
S113026096010E94060420E030E040E85FE30E942B
S1130270B3020E942503862FFF90EF90DF90CF906A
S1130280089590930E0180930D0184B5826084BD1E
S1130290CB01BA010E94D50087BD089540E050E02B
S11302A060E87FE30E9441010895809106019091E6
S11302B0070180349105B9F030F48130910559F08B
S11302C0089769F01BC0811521E0920781F0811520
S11302D0944089F013C085B5816085BD0FC085B594
S11302E0826085BD0BC085B5836085BD07C085B5BB
S11302F0846085BD03C085B5856085BDEEE6F0E00C
S1130300808182608083789408950E9455010895C5
S113031088E090E00E94530008959BB19F709BB9C0
S11303209BB1892B8BB9289A28980895CF93C82F0D
S11303300E94880129988C2F807F0E948D018C2F28
S11303408295807F0E948D01CF910895CF93C82F0D
S11303500E948801299A8C2F807F0E948D01299AFE
S11303608C2F8295807F0E948D012998CF910895CA
S11303708AB1806F8AB9209A219A80E390E00E9422
S1130380630080E30E948D0180E190E00E9463009D
S113039080E30E948D0188E090E00E94630080E386
S11303A00E948D0188E090E00E94630080E20E9438
S11303B08D0188E20E9496018CE00E94960184E1FE
S11303C00E949601089581E00E9496010895833069
S11303D031F0843031F0823031F490E405C090E1A2
S11303E003C090E501C090E08FEF860F890F80680D
S11303F00E9496010895863D09F168F4803B51F10D
S113040028F48C3519F1803819F10895853BE1F011
S1130410843C71F00895843E59F028F48C3D81F0B9
S11304208F3D81F00895863F29F08C3F29F008958F
S113043081EE08958FEE089585EF08958FEE089567
S113044085EF089582EE089584EE089584EA089570
S113045083ED08958FED08950E94FB010E94A6018B
S11304600895CF93DF93EC018881882331F021969E
S11304700E942C0289918111FBCFDF91CF910895C5
S113048080910B0190910C01019690930C01809343
S11304900B01883E9340F8F080910A018F5F8093AE
S11304A00A0110920C0110920B018C33A0F0809180
S11304B009018F5F8093090110920A018C3358F06F
S11304C0809108018F5F809308011092090188319F
S11304D010F01092080108950E94B80180E492E09F
S11304E00E944E010E94E30161E081E00E94E70165
S11304F080E091E00E9431020E9485010895CF932B
S1130500DF93D82FCDEC8C9FC12D1124C695C695B1
S1130510C69580E38C0F0E942C02CC0F8C2F880F81
S1130520880FC80F8D2F8C1B805D0E942C02DF91D9
S1130530CF9108950E946C0261E082E00E94E7017D
S1130540809108010E947F028AE30E942C0280911C
S113055009010E947F028AE30E942C0280910A0111
S11305600E947F02E9CF5058BB27AA270E94CB02E2
S11305700C94CC030E94BE0338F00E94C50320F003
S113058039F49F3F19F426F40C94BB030EF4E09560
S1130590E7FB0C94B503E92F0E94DD0358F3BA1767
S11305A0620773078407950720F079F4A6F50C9485
S11305B0FF030EF4E0950B2EBA2FA02D0B01B90109
S11305C090010C01CA01A0011124FF27591B99F0C5
S11305D0593F50F4503E68F11A16F040A22F232FD1
S11305E0342F4427585FF3CF469537952795A79521
S11305F0F0405395C9F77EF41F16BA0B620B730BC8
S1130600840BBAF09150A1F0FF0FBB1F661F771F38
S1130610881FC2F70EC0BA0F621F731F841F48F4ED
S1130620879577956795B795F7959E3F08F0B0CF76
S11306309395880F08F09927EE0F9795879508955D
S11306400E94910308F481E008950E94E50388F074
S11306509F5798F0B92F9927B751B0F0E1F0660F82
S1130660771F881F991F1AF0BA95C9F714C0B130C3
S113067091F00E94FF03B1E008950C94FF03672FEB
S1130680782F8827B85F39F0B93FCCF386957795F2
S11306906795B395D9F73EF49095809570956195DB
S11306A07F4F8F4F9F4F0895E89409C097FB3EF406
S11306B090958095709561957F4F8F4F9F4F9923AB
S11306C0A9F0F92F96E9BB279395F6958795779529
S11306D06795B795F111F8CFFAF4BB0F11F460FFE9
S11306E01BC06F5F7F4F8F4F9F4F16C0882311F041
S11306F096E911C0772321F09EE8872F762F05C055
S1130700662371F096E8862F70E060E02AF09A95EF
S1130710660F771F881FDAF7880F9695879597F9E4
S11307200895990F0008550FAA0BE0E8FEEF16167E
S11307301706E807F907C0F012161306E407F507D1
S113074098F0621B730B840B950B39F40A2661F045
S1130750232B242B252B21F408950A2609F4A140E8
S1130760A6958FEF811D811D089597F99F6780E8F5
S113077070E060E008959FEF80EC089500240A94EF
S11307801616170618060906089500240A94121668
S11307901306140605060895092E0394000C11F49B
S11307A0882352F0BB0F40F4BF2B11F460FF04C048
S11307B06F5F7F4F8F4F9F4F089557FD9058440FA1
S11307C0551F59F05F3F71F04795880F97FB991FAC
S11307D061F09F3F79F08795089512161306140669
S11307E0551FF2CF4695F1DF08C0161617061806F6
S11307F0991FF1CF86957105610508940895E894D1
S1130800BB2766277727CB0197F908950E9419041F
S11308100C94CC030E94BE0338F00E94C50320F060
S1130820952311F00C94B5030C94BB0311240C9480
S113083000040E94DD0370F3959FC1F3950F50E00F
S1130840551F629FF001729FBB27F00DB11D639F7E
S1130850AA27F00DB11DAA1F649F6627B00DA11D24
S1130860661F829F2227B00DA11D621F739FB00DCA
S1130870A11D621F839FA00D611D221F749F33273A
S1130880A00D611D231F849F600D211D822F762FD3
S11308906A2F11249F5750409AF0F1F088234AF0B0
S11308A0EE0FFF1FBB1F661F771F881F915050401C
S11308B0A9F79E3F510580F00C94B5030C940004F5
S11308C05F3FE4F3983ED4F3869577956795B795A3
S11308D0F795E7959F5FC1F7FE2B880F911D9695BD
S11308E0879597F90895AA1BBB1B51E107C0AA1F5E
S11308F0BB1FA617B70710F0A61BB70B881F991FBD
S11309005A95A9F780959095BC01CD010895F89466
S1050910FFCF13
S109091254696D657200DA
S9030000FC
