S0190000657874496E746572727570745F746573742E73726563CE
S11300000C9434000C9414010C9451000C94510081
S11300100C9451000C9451000C9451000C94510018
S11300200C9451000C9451000C9451000C94510008
S11300300C9451000C9451000C9440010C94510008
S11300400C9473010C9451000C9451000C945100C5
S11300500C9451000C9451000C9451000C945100D8
S11300600C9451000C94510011241FBECFEFD8E022
S1130070DEBFCDBF11E0A0E0B1E0E6E2F7E002C0F0
S113008005900D92AA30B107D9F721E0AAE0B1E0BA
S113009001C01D92AF30B207E1F70E94D9000C9461
S11300A091030C940000E9EBF0E080818C7F808365
S11300B080EC8093B800089584EA8093BC00ECEB54
S11300C0F0E080818823ECF7089584E98093BC00F4
S11300D008958093BB0084E88093BC00ECEBF0E0CF
S11300E080818823ECF78091B900887F883191F072
S11300F08091B900887F883279F08091B900887F37
S1130100803261F09091B900987F81E0903339F0AA
S113011080E0089580E0089580E0089581E00895E6
S1130120009769F020E030E0EFE8F1E03197F1F773
S113013000C000002F5F3F4F28173907A9F7089523
S11301400F931F93CF93DF93009759F08C01C0E076
S1130150D0E08AE090E00E9490002196C017D10779
S1130160C1F7DF91CF911F910F91089588E290E03C
S11301700E94A00080910A018F5F80930A01089574
S11301800E948F0286EB90E00E94070141E060E04C
S113019088E290E00E94A8010E94B70261E081E039
S11301A00E94BB0280E091E00E9405030E943D0191
S11301B008950E94C00064E082E00E94BB02809126
S11301C00A0190E00E94140360E088E290E00E943B
S11301D01102482F409560E088E290E00E943602C8
S11301E061E082E00E94BB028AE20E94000384EF85
S11301F091E00E94A00061E082E00E94BB0280E2E4
S11302000E94000384EF91E00E94A000D4CF909359
S11302100E0180930D01E9E6F0E080818260808325
S113022080818E7F808308951F920F920FB60F9264
S113023011242F933F934F935F936F937F938F93E7
S11302409F93AF93BF93EF93FF93E898E0910D01D1
S1130250F0910E010995E89AFF91EF91BF91AF914A
S11302609F918F917F916F915F914F913F912F91CA
S11302700F900FBE0F901F901895E89A78940895E8
S11302801F920F920FB60F9211242F933F934F9307
S11302905F936F937F938F939F93AF93BF93CF930A
S11302A0DF93EF93FF93CEE6D0E088818D7F888340
S11302B0E0910B01F0910C0109958881826088839B
S11302C0FF91EF91DF91CF91BF91AF919F918F916A
S11302D07F916F915F914F913F912F910F900FBE3E
S11302E00F901F9018951F920F920FB60F92112422
S11302F02F933F934F935F936F937F938F939F932A
S1130300AF93BF93CF93DF93EF93FF9389EF86BDB2
S1130310CEE6D0E088818D7F8883E0910B01F09157
S11303200C010995888182608883FF91EF91DF91A8
S1130330CF91BF91AF919F918F917F916F915F9179
S11303404F913F912F910F900FBE0F901F901895D2
S1130350413051F58B32910559F42AB181E090E096
S113036002C0880F991F6A95E2F7822B8AB9089513
S11303708532910559F424B181E090E002C0880FE0
S1130380991F6A95E2F7822B84B90895889709F03A
S113039047C027B181E090E002C0880F991F6A9599
S11303A0E2F7822B87B908958B32910569F45AB12B
S11303B021E030E0062E02C0220F331F0A94E2F738
S11303C0209525232AB91FC08532910569F454B1BB
S11303D021E030E0062E02C0220F331F0A94E2F718
S11303E02095252324B90FC08832910561F457B1B3
S11303F021E030E0062E02C0220F331F0A94E2F7F8
S11304002095252327B941110BC0FC01408121E02F
S113041030E002C0220F331F6A95E2F7242B2083B9
S113042008958B32910549F489B190E002C0959505
S113043087956A95E2F7817008958532910549F4AC
S113044083B190E002C0959587956A95E2F7817033
S11304500895889749F486B190E002C095958795F0
S11304606A95E2F78170089580E00895FC0140FFE9
S11304700BC0208181E090E002C0880F991F6A952B
S1130480E2F7822B80830895908121E030E002C05E
S1130490220F331F6A95E2F72095292320830895BC
S11304A088E090E00E9490000895CF93C82F0E94A6
S11304B05C008EE40E9469008C2F0E9469000E94F7
S11304C06500CF910895CF93C82F8C600E94550288
S11304D08C2F8B7F88600E945502CF910895CF9313
S11304E0C82F0E9450028C2F807F0E9463028C2FA1
S11304F08295807F0E946302CF910895CF93C82F85
S11305000E9450028C2F807F81600E9463028C2F96
S11305108295807F81600E946302CF91089580E379
S113052090E00E94A0000E94530080E30E946302B6
S113053080E190E00E94A00080E30E94630288E0D2
S113054090E00E94A00080E30E94630288E090E0B3
S11305500E94A00080E20E94630288E20E946F026F
S11305608CE00E946F0284E10E946F02089581E092
S11305700E946F020895833031F0843031F082306C
S113058031F490E405C090E103C090E501C090E02F
S11305908FEF860F890F80680E946F020895863D51
S11305A009F168F4803B51F128F48C3519F1803855
S11305B019F10895853BE1F0843C71F00895843E7F
S11305C059F028F48C3D81F08F3D81F00895863FE9
S11305D029F08C3F29F0089581EE08958FEE089557
S11305E085EF08958FEE089585EF089582EE0895BE
S11305F084EE089584EA089583ED08958FED0895B7
S11306000E94CF020E947E020895CF93DF93EC01F3
S11306108881882331F021960E94000389918111F9
S1130620FBCFDF91CF910895EF92FF920F931F9329
S1130630CF93DF9300D000D01F92CDB7DEB78C01EB
S113064080E0E1E0E80FEE24E394F12CEC0EFD1ED3
S1130650E80EF11C9801ADECBCEC0E948203AC01E5
S1130660569547955695479556954795CA01880FCF
S1130670991F440F551F440F551F440F551F480F12
S1130680591FC801841B950B805DD7018C93ADEC79
S1130690BCEC0E9482038C0116950795169507956C
S11306A0169507958E2F0115110559F6E53078F446
S11306B080E211E01E0F21E030E02C0F3D1F2E0FD1
S11306C0311DF9018083E12F153099F703C0EE2322
S11306D069F01E2F1150E1E0F0E0EC0FFD1FE10F77
S11306E0F11D80810E9400031111F4CF0F900F902F
S11306F00F900F900F90DF91CF911F910F91FF906A
S1130700EF900895A29FB001B39FC001A39F700D05
S1130710811D1124911DB29F700D811D1124911D05
S10907200895F894FFCFD8
S10D0726496E7420546573740000DA
S9030000FC
